{
  "contractName": "CrowdfundingFactory",
  "abi": [
    {
      "constant": true,
      "inputs": [
        {
          "name": "",
          "type": "uint256"
        }
      ],
      "name": "campaigns",
      "outputs": [
        {
          "name": "name",
          "type": "string"
        },
        {
          "name": "imageUrl",
          "type": "string"
        },
        {
          "name": "amount",
          "type": "uint256"
        },
        {
          "name": "goal",
          "type": "uint256"
        },
        {
          "name": "beneficiary",
          "type": "address"
        },
        {
          "name": "endDate",
          "type": "uint256"
        },
        {
          "name": "refundDeadline",
          "type": "uint256"
        },
        {
          "name": "rate",
          "type": "uint256"
        },
        {
          "name": "term",
          "type": "uint256"
        },
        {
          "name": "status",
          "type": "uint8"
        },
        {
          "name": "debt",
          "type": "uint256"
        },
        {
          "name": "numInvestors",
          "type": "uint256"
        }
      ],
      "payable": false,
      "stateMutability": "view",
      "type": "function"
    },
    {
      "constant": true,
      "inputs": [],
      "name": "numCampaigns",
      "outputs": [
        {
          "name": "",
          "type": "uint256"
        }
      ],
      "payable": false,
      "stateMutability": "view",
      "type": "function"
    },
    {
      "constant": true,
      "inputs": [],
      "name": "stopped",
      "outputs": [
        {
          "name": "",
          "type": "bool"
        }
      ],
      "payable": false,
      "stateMutability": "view",
      "type": "function"
    },
    {
      "constant": true,
      "inputs": [],
      "name": "owner",
      "outputs": [
        {
          "name": "",
          "type": "address"
        }
      ],
      "payable": false,
      "stateMutability": "view",
      "type": "function"
    },
    {
      "inputs": [],
      "payable": false,
      "stateMutability": "nonpayable",
      "type": "constructor"
    },
    {
      "constant": false,
      "inputs": [],
      "name": "toggleEmergency",
      "outputs": [
        {
          "name": "",
          "type": "string"
        }
      ],
      "payable": false,
      "stateMutability": "nonpayable",
      "type": "function"
    },
    {
      "constant": false,
      "inputs": [
        {
          "name": "name",
          "type": "string"
        },
        {
          "name": "imageUrl",
          "type": "string"
        },
        {
          "name": "goal",
          "type": "uint256"
        },
        {
          "name": "endDate",
          "type": "uint256"
        },
        {
          "name": "rate",
          "type": "uint256"
        },
        {
          "name": "term",
          "type": "uint256"
        }
      ],
      "name": "createCampaign",
      "outputs": [
        {
          "name": "",
          "type": "string"
        }
      ],
      "payable": false,
      "stateMutability": "nonpayable",
      "type": "function"
    },
    {
      "constant": false,
      "inputs": [
        {
          "name": "campaignID",
          "type": "uint256"
        },
        {
          "name": "todayDate",
          "type": "uint256"
        }
      ],
      "name": "contribute",
      "outputs": [],
      "payable": true,
      "stateMutability": "payable",
      "type": "function"
    },
    {
      "constant": true,
      "inputs": [
        {
          "name": "campaignID",
          "type": "uint256"
        },
        {
          "name": "investorAddr",
          "type": "address"
        }
      ],
      "name": "getInvestorID",
      "outputs": [
        {
          "name": "",
          "type": "uint256"
        }
      ],
      "payable": false,
      "stateMutability": "view",
      "type": "function"
    },
    {
      "constant": true,
      "inputs": [
        {
          "name": "investorID",
          "type": "uint256"
        },
        {
          "name": "campaignID",
          "type": "uint256"
        }
      ],
      "name": "getInvestorInCampaign",
      "outputs": [
        {
          "name": "",
          "type": "address"
        },
        {
          "name": "",
          "type": "uint256"
        },
        {
          "name": "",
          "type": "uint256"
        }
      ],
      "payable": false,
      "stateMutability": "view",
      "type": "function"
    },
    {
      "constant": false,
      "inputs": [
        {
          "name": "campaignID",
          "type": "uint256"
        },
        {
          "name": "todayDate",
          "type": "uint256"
        },
        {
          "name": "refundDeadline",
          "type": "uint256"
        }
      ],
      "name": "goalReached",
      "outputs": [],
      "payable": true,
      "stateMutability": "payable",
      "type": "function"
    },
    {
      "constant": false,
      "inputs": [
        {
          "name": "campaignID",
          "type": "uint256"
        },
        {
          "name": "todayDate",
          "type": "uint256"
        }
      ],
      "name": "failCampaign",
      "outputs": [],
      "payable": false,
      "stateMutability": "nonpayable",
      "type": "function"
    },
    {
      "constant": false,
      "inputs": [
        {
          "name": "campaignID",
          "type": "uint256"
        }
      ],
      "name": "claimRefund",
      "outputs": [],
      "payable": true,
      "stateMutability": "payable",
      "type": "function"
    },
    {
      "constant": false,
      "inputs": [
        {
          "name": "campaignID",
          "type": "uint256"
        },
        {
          "name": "todayDate",
          "type": "uint256"
        }
      ],
      "name": "payDebt",
      "outputs": [],
      "payable": true,
      "stateMutability": "payable",
      "type": "function"
    },
    {
      "constant": false,
      "inputs": [
        {
          "name": "campaignID",
          "type": "uint256"
        }
      ],
      "name": "claimShare",
      "outputs": [],
      "payable": true,
      "stateMutability": "payable",
      "type": "function"
    },
    {
      "constant": false,
      "inputs": [],
      "name": "withdrawEmergencyMoney",
      "outputs": [],
      "payable": false,
      "stateMutability": "nonpayable",
      "type": "function"
    }
  ],
  "bytecode": "0x608060405260646000556000600260146101000a81548160ff02191690831515021790555034801561003057600080fd5b5033600260006101000a81548173ffffffffffffffffffffffffffffffffffffffff021916908373ffffffffffffffffffffffffffffffffffffffff16021790555061199b806100816000396000f3006080604052600436106100db576000357c0100000000000000000000000000000000000000000000000000000000900463ffffffff1680630cc03e7a146100e0578063141961bc146101005780632897c24a146102925780632c0f7b6f146103e25780632d1d27441461040d57806348439e0b1461049d5780635b7baf64146104d157806362cc01e7146104f157806375f12b211461051b5780638c5909171461054a5780638da5cb5b146105745780639e99f459146105cb578063adff220d146105e2578063c218b1be14610619578063f46516b51461069e575b600080fd5b6100fe600480360381019080803590602001909291905050506106ff565b005b34801561010c57600080fd5b5061012b6004803603810190808035906020019092919050505061080c565b6040518080602001806020018d81526020018c81526020018b73ffffffffffffffffffffffffffffffffffffffff1673ffffffffffffffffffffffffffffffffffffffff1681526020018a815260200189815260200188815260200187815260200186600381111561019957fe5b60ff16815260200185815260200184815260200183810383528f818151815260200191508051906020019080838360005b838110156101e55780820151818401526020810190506101ca565b50505050905090810190601f1680156102125780820380516001836020036101000a031916815260200191505b5083810382528e818151815260200191508051906020019080838360005b8381101561024b578082015181840152602081019050610230565b50505050905090810190601f1680156102785780820380516001836020036101000a031916815260200191505b509e50505050505050505050505050505060405180910390f35b34801561029e57600080fd5b50610367600480360381019080803590602001908201803590602001908080601f0160208091040260200160405190810160405280939291908181526020018383808284378201915050505050509192919290803590602001908201803590602001908080601f0160208091040260200160405190810160405280939291908181526020018383808284378201915050505050509192919290803590602001909291908035906020019092919080359060200190929190803590602001909291905050506109c9565b6040518080602001828103825283818151815260200191508051906020019080838360005b838110156103a757808201518184015260208101905061038c565b50505050905090810190601f1680156103d45780820380516001836020036101000a031916815260200191505b509250505060405180910390f35b3480156103ee57600080fd5b506103f7610c41565b6040518082815260200191505060405180910390f35b34801561041957600080fd5b50610422610c47565b6040518080602001828103825283818151815260200191508051906020019080838360005b83811015610462578082015181840152602081019050610447565b50505050905090810190601f16801561048f5780820380516001836020036101000a031916815260200191505b509250505060405180910390f35b6104cf600480360381019080803590602001909291908035906020019092919080359060200190929190505050610cae565b005b6104ef60048036038101908080359060200190929190505050610e7f565b005b6105196004803603810190808035906020019092919080359060200190929190505050610fd5565b005b34801561052757600080fd5b50610530611116565b604051808215151515815260200191505060405180910390f35b6105726004803603810190808035906020019092919080359060200190929190505050611129565b005b34801561058057600080fd5b50610589611382565b604051808273ffffffffffffffffffffffffffffffffffffffff1673ffffffffffffffffffffffffffffffffffffffff16815260200191505060405180910390f35b3480156105d757600080fd5b506105e06113a8565b005b3480156105ee57600080fd5b50610617600480360381019080803590602001909291908035906020019092919050505061152f565b005b34801561062557600080fd5b5061064e600480360381019080803590602001909291908035906020019092919050505061162c565b604051808473ffffffffffffffffffffffffffffffffffffffff1673ffffffffffffffffffffffffffffffffffffffff168152602001838152602001828152602001935050505060405180910390f35b3480156106aa57600080fd5b506106e960048036038101908080359060200190929190803573ffffffffffffffffffffffffffffffffffffffff1690602001909291905050506116c0565b6040518082815260200191505060405180910390f35b6000806000600260149054906101000a900460ff1615156108065760036000858152602001908152602001600020925061073984336116c0565b915060008211151561074a57600080fd5b600083600c0160008481526020019081526020016000206002015411151561077157600080fd5b82600c016000838152602001908152602001600020600201549050600083600c016000848152602001908152602001600020600201819055503373ffffffffffffffffffffffffffffffffffffffff166108fc6107d96000548461177a90919063ffffffff16565b9081150290604051600060405180830381858888f19350505050158015610804573d6000803e3d6000fd5b505b50505050565b6003602052806000526040600020600091509050806000018054600181600116156101000203166002900480601f0160208091040260200160405190810160405280929190818152602001828054600181600116156101000203166002900480156108b85780601f1061088d576101008083540402835291602001916108b8565b820191906000526020600020905b81548152906001019060200180831161089b57829003601f168201915b505050505090806001018054600181600116156101000203166002900480601f0160208091040260200160405190810160405280929190818152602001828054600181600116156101000203166002900480156109565780601f1061092b57610100808354040283529160200191610956565b820191906000526020600020905b81548152906001019060200180831161093957829003601f168201915b5050505050908060020154908060030154908060040160009054906101000a900473ffffffffffffffffffffffffffffffffffffffff16908060050154908060060154908060070154908060080154908060090160009054906101000a900460ff169080600a01549080600b015490508c565b6060600060016000815480929190600101919050555060015490506101806040519081016040528089815260200188815260200160008152602001610a19600054896117a490919063ffffffff16565b81526020013373ffffffffffffffffffffffffffffffffffffffff1681526020018681526020016000815260200185815260200184815260200160006003811115610a6057fe5b8152602001600081526020016000815250600360008381526020019081526020016000206000820151816000019080519060200190610aa09291906118ca565b506020820151816001019080519060200190610abd9291906118ca565b50604082015181600201556060820151816003015560808201518160040160006101000a81548173ffffffffffffffffffffffffffffffffffffffff021916908373ffffffffffffffffffffffffffffffffffffffff16021790555060a0820151816005015560c0820151816006015560e0820151816007015561010082015181600801556101208201518160090160006101000a81548160ff02191690836003811115610b6757fe5b021790555061014082015181600a015561016082015181600b0155905050600360008281526020019081526020016000206000018054600181600116156101000203166002900480601f016020809104026020016040519081016040528092919081815260200182805460018160011615610100020316600290048015610c2f5780601f10610c0457610100808354040283529160200191610c2f565b820191906000526020600020905b815481529060010190602001808311610c1257829003601f168201915b50505050509150509695505050505050565b60015481565b6060600260149054906101000a900460ff1615600260146101000a81548160ff0219169083151502179055506040805190810160405280600781526020017f73746f7070656400000000000000000000000000000000000000000000000000815250905090565b6000806000856003600082815260200190815260200160002060040160009054906101000a900473ffffffffffffffffffffffffffffffffffffffff1673ffffffffffffffffffffffffffffffffffffffff163373ffffffffffffffffffffffffffffffffffffffff16141515610d2457600080fd5b868660036000838152602001908152602001600020600501548111151515610d4b57600080fd5b600260149054906101000a900460ff161515610e7457600360008a8152602001908152602001600020955085600201548660030154141515610d8c57600080fd5b856002015494506000866002018190555060018660090160006101000a81548160ff02191690836003811115610dbe57fe5b021790555060648660070154876003015402811515610dd957fe5b0493508386600301540186600a01819055508686600601819055508560040160009054906101000a900473ffffffffffffffffffffffffffffffffffffffff1673ffffffffffffffffffffffffffffffffffffffff166108fc610e476000548861177a90919063ffffffff16565b9081150290604051600060405180830381858888f19350505050158015610e72573d6000803e3d6000fd5b505b505050505050505050565b600080600083600380811115610e9157fe5b6003600083815260200190815260200160002060090160009054906101000a900460ff166003811115610ec057fe5b141515610ecc57600080fd5b600260149054906101000a900460ff161515610fce57600360008681526020019081526020016000209350610f0185336116c0565b9250600083111515610f1257600080fd5b600084600c01600085815260200190815260200160002060020154111515610f3957600080fd5b83600c016000848152602001908152602001600020600201549150600084600c016000858152602001908152602001600020600201819055503373ffffffffffffffffffffffffffffffffffffffff166108fc610fa16000548561177a90919063ffffffff16565b9081150290604051600060405180830381858888f19350505050158015610fcc573d6000803e3d6000fd5b505b5050505050565b600080836003600082815260200190815260200160002060040160009054906101000a900473ffffffffffffffffffffffffffffffffffffffff1673ffffffffffffffffffffffffffffffffffffffff163373ffffffffffffffffffffffffffffffffffffffff1614151561104957600080fd5b600260149054906101000a900460ff16151561110f57600360008681526020019081526020016000209250611089600054346117a490919063ffffffff16565b9150600083600a015411151561109e57600080fd5b826006015484111515156110b157600080fd5b6110c88284600a01546117e290919063ffffffff16565b83600a0181905550600083600a015414156111045760028360090160006101000a81548160ff021916908360038111156110fe57fe5b02179055505b61110e8583611803565b5b5050505050565b600260149054906101000a900460ff1681565b6000806000846003600082815260200190815260200160002060030154600360008381526020019081526020016000206002015410151561116957600080fd5b856000600381111561117757fe5b6003600083815260200190815260200160002060090160009054906101000a900460ff1660038111156111a657fe5b1415156111b257600080fd5b8686600360008381526020019081526020016000206005015481111515156111d957600080fd5b600260149054906101000a900460ff16151561137757600360008a81526020019081526020016000209650611219600054346117a490919063ffffffff16565b95508660030154868860020154011115151561123457600080fd5b61123e89336116c0565b94506000851115611295576112748688600c016000888152602001908152602001600020600101546118a990919063ffffffff16565b87600c01600087815260200190815260200160002060010181905550611357565b86600b016000815480929190600101919050555086600b015494506060604051908101604052803373ffffffffffffffffffffffffffffffffffffffff168152602001878152602001600081525087600c01600087815260200190815260200160002060008201518160000160006101000a81548173ffffffffffffffffffffffffffffffffffffffff021916908373ffffffffffffffffffffffffffffffffffffffff16021790555060208201518160010155604082015181600201559050505b61136e8688600201546118a990919063ffffffff16565b87600201819055505b505050505050505050565b600260009054906101000a900473ffffffffffffffffffffffffffffffffffffffff1681565b6000806000600260149054906101000a900460ff161561152a57600191505b600154821115156114ce57600190505b60036000838152602001908152602001600020600b0154811115156114c1573373ffffffffffffffffffffffffffffffffffffffff1660036000848152602001908152602001600020600c01600083815260200190815260200160002060000160009054906101000a900473ffffffffffffffffffffffffffffffffffffffff1673ffffffffffffffffffffffffffffffffffffffff1614156114b4576114b160036000848152602001908152602001600020600c01600083815260200190815260200160002060010154846118a990919063ffffffff16565b92505b80806001019150506113d7565b81806001019250506113c7565b3373ffffffffffffffffffffffffffffffffffffffff166108fc6114fd6000548661177a90919063ffffffff16565b9081150290604051600060405180830381858888f19350505050158015611528573d6000803e3d6000fd5b505b505050565b600080836003600082815260200190815260200160002060030154600360008381526020019081526020016000206002015410151561156d57600080fd5b600260149054906101000a900460ff161515611625576003600086815260200190815260200160002092508383600501541015156115aa57600080fd5b60038360090160006101000a81548160ff021916908360038111156115cb57fe5b0217905550600191505b82600b0154821115156116245782600c0160008381526020019081526020016000206001015483600c0160008481526020019081526020016000206002018190555081806001019250506115d5565b5b5050505050565b60008060008060036000868152602001908152602001600020905080600c01600087815260200190815260200160002060000160009054906101000a900473ffffffffffffffffffffffffffffffffffffffff1681600c0160008881526020019081526020016000206001015482600c01600089815260200190815260200160002060020154935093509350509250925092565b6000806000600360008681526020019081526020016000209150600190505b81600b01548111151561176d578373ffffffffffffffffffffffffffffffffffffffff1682600c01600083815260200190815260200160002060000160009054906101000a900473ffffffffffffffffffffffffffffffffffffffff1673ffffffffffffffffffffffffffffffffffffffff16141561176057809250611772565b80806001019150506116df565b600092505b505092915050565b60008060008311151561178c57600080fd5b828481151561179757fe5b0490508091505092915050565b60008060008414156117b957600091506117db565b82840290508284828115156117ca57fe5b041415156117d757600080fd5b8091505b5092915050565b6000808383111515156117f457600080fd5b82840390508091505092915050565b600080600080600360008781526020019081526020016000209350600192505b83600b0154831115156118a1578360030154606485600c016000868152602001908152602001600020600101540281151561185a57fe5b049150606482860281151561186b57fe5b0490508084600c016000858152602001908152602001600020600201600082825401925050819055508280600101935050611823565b505050505050565b60008082840190508381101515156118c057600080fd5b8091505092915050565b828054600181600116156101000203166002900490600052602060002090601f016020900481019282601f1061190b57805160ff1916838001178555611939565b82800160010185558215611939579182015b8281111561193857825182559160200191906001019061191d565b5b509050611946919061194a565b5090565b61196c91905b80821115611968576000816000905550600101611950565b5090565b905600a165627a7a72305820e6985a732e69ff1b047ecc801b325ca633ef7093160d637ec5f311e8580de6f30029",
  "source": "pragma solidity ^0.4.17;\nimport \"./SafeMath.sol\";\n\ncontract CrowdfundingFactory {\n    using SafeMath for uint256;\n\n    uint256 multiplier = 10**2;\n    uint256 public numCampaigns;\n    // uint256[] investorCampaigns;\n    address public owner;\n    bool public stopped = false;\n    mapping(uint256 => Campaign) public campaigns;\n    \n    enum Status { \n        Active, \n        Refunding,\n        Terminated, \n        Failed\n    }\n\n    struct Investor{\n        address addr;\n        uint256 amount;\n        uint256 balance;\n    }\n\n    struct Campaign{\n        string name;\n        string imageUrl;\n        uint256 amount;\n        uint256 goal;\n        address beneficiary;\n        uint256 endDate;\n        uint256 refundDeadline;\n        uint256 rate;\n        uint256 term;\n        Status status;\n        uint256 debt;\n        uint256 numInvestors;\n        mapping(uint => Investor) investors;\n    }\n\n    modifier isOwner() { if(msg.sender == owner) _; }\n    modifier stopInEmergency { if (!stopped) _; }\n    modifier onlyInEmergency { if (stopped) _; }\n    \n    modifier active(uint256 _campaignID){\n        require(campaigns[_campaignID].status == Status.Active);\n        _;\n    }\n    modifier failed(uint256 _campaignID){\n        require(campaigns[_campaignID].status == Status.Failed);\n        _;\n    }\n    modifier activeValidDate(uint256 _campaignID, uint256 _todayDate){\n        require(_todayDate <= campaigns[_campaignID].endDate);\n        _;\n    }\n    modifier validAmount(uint256 _campaignID){\n        require(campaigns[_campaignID].amount < campaigns[_campaignID].goal);\n        _;\n    }\n    modifier isBeneficiary(uint256 _campaignID){\n        require(msg.sender == campaigns[_campaignID].beneficiary);\n        _;\n    }\n\n    constructor(){\n        owner = msg.sender;\n    }\n\n    function toggleEmergency() public returns(string){\n        stopped = !stopped;\n        return \"stopped\";\n    }\n\n    function createCampaign(string name, string imageUrl, uint256 goal, uint256 endDate, uint256 rate, uint256 term) public returns(string){\n        numCampaigns++;\n        uint256 campaignID = numCampaigns;\n        campaigns[campaignID] = Campaign(name, imageUrl, 0, goal.mul(multiplier), msg.sender, endDate, 0, rate, term, Status.Active, 0, 0);\n        return campaigns[campaignID].name;\n    }\n\n    // function getCampaigns() public view returns(uint256){\n    //     return numCampaigns;\n    // }\n\n    // function getCampaign(uint256 campaignID) public view returns(string, uint256, uint256, address, uint256, uint256, uint256, uint, uint, uint){\n    //     Campaign storage campaign = campaigns[campaignID];\n    //     return (campaign.name, campaign.amount, campaign.goal, campaign.beneficiary, campaign.endDate, campaign.rate, campaign.term, uint(campaign.status), campaign.debt, campaign.refundDeadline);\n    // }\n\n    function contribute(uint256 campaignID, uint256 todayDate) validAmount(campaignID) active(campaignID) activeValidDate(campaignID, todayDate) stopInEmergency public payable{\n        Campaign storage campaign = campaigns[campaignID];\n        uint value = msg.value.mul(multiplier);\n        require(campaign.amount + value <= campaign.goal);\n        uint256 investorID = getInvestorID(campaignID, msg.sender);\n        if(investorID > 0){\n            campaign.investors[investorID].amount = campaign.investors[investorID].amount.add(value);\n        } else{\n            campaign.numInvestors++;\n            investorID = campaign.numInvestors;\n            campaign.investors[investorID] = Investor(msg.sender, value, 0);\n        }\n        campaign.amount = campaign.amount.add(value);\n    }\n\n    // function getDebt(uint256 campaignID) isBeneficiary(campaignID) public view returns(uint256){\n    //     Campaign storage campaign = campaigns[campaignID];\n    //     return campaign.debt;\n    // }\n\n    function getInvestorID(uint256 campaignID, address investorAddr) public view returns(uint256){\n        Campaign storage campaign = campaigns[campaignID];\n        for (uint256 i = 1; i <= campaign.numInvestors; i ++) {\n            if(campaign.investors[i].addr == investorAddr){\n                return i;\n            }\n        }\n        return 0;\n    }\n\n    function getInvestorInCampaign(uint256 investorID, uint256 campaignID) public view returns(address, uint256, uint256){\n        Campaign storage campaign = campaigns[campaignID];\n        return (campaign.investors[investorID].addr, campaign.investors[investorID].amount, campaign.investors[investorID].balance);\n    }\n\n    function goalReached(uint256 campaignID, uint256 todayDate, uint256 refundDeadline) isBeneficiary(campaignID) activeValidDate(campaignID, todayDate) stopInEmergency public payable {\n        Campaign storage campaign = campaigns[campaignID];\n        require(campaign.goal == campaign.amount);\n        uint256 amount = campaign.amount;\n        campaign.amount = 0;\n        campaign.status = Status.Refunding;\n        uint256 percentage = (campaign.goal*campaign.rate) / 100;\n        campaign.debt = campaign.goal + percentage;\n        campaign.refundDeadline = refundDeadline;\n        campaign.beneficiary.transfer(amount.div(multiplier));\n    }\n\n    function failCampaign(uint256 campaignID, uint256 todayDate) validAmount(campaignID) stopInEmergency public {\n        Campaign storage campaign = campaigns[campaignID];\n        require(campaign.endDate < todayDate);\n        campaign.status = Status.Failed;\n        for (uint256 i = 1; i <= campaign.numInvestors; i ++) {\n            campaign.investors[i].balance = campaign.investors[i].amount;\n        }\n    }\n\n    function claimRefund(uint256 campaignID) failed(campaignID) stopInEmergency public payable {\n        Campaign storage campaign = campaigns[campaignID];\n        uint256 investorID = getInvestorID(campaignID, msg.sender);\n        require(investorID > 0);\n        require(campaign.investors[investorID].balance > 0);\n        uint256 refund = campaign.investors[investorID].balance;\n        campaign.investors[investorID].balance = 0;\n        msg.sender.transfer(refund.div(multiplier));\n    }\n\n    function payDebt(uint256 campaignID, uint256 todayDate) isBeneficiary(campaignID) stopInEmergency public payable {\n        Campaign storage campaign = campaigns[campaignID];\n        uint256 value = msg.value.mul(multiplier);\n        require(campaign.debt > 0);\n        require(todayDate <= campaign.refundDeadline);\n        campaign.debt = campaign.debt.sub(value);\n        if(campaign.debt == 0){\n            campaign.status = Status.Terminated;\n        }\n        releaseHolderShares(campaignID, value);\n    }\n\n    function releaseHolderShares(uint256 campaignID, uint depositAmount) private {\n        Campaign storage campaign = campaigns[campaignID];\n        for (uint256 i = 1; i <= campaign.numInvestors; i ++) {\n            uint256 percentage = (campaign.investors[i].amount * 100) / campaign.goal;\n            uint256 holderShare = (depositAmount * percentage) / 100;\n            campaign.investors[i].balance += holderShare;\n        }\n    }\n\n    function claimShare(uint256 campaignID) stopInEmergency public payable {\n        Campaign storage campaign = campaigns[campaignID];\n        uint256 investorID = getInvestorID(campaignID, msg.sender);\n        require(investorID > 0);\n        require(campaign.investors[investorID].balance > 0);\n        uint256 refund = campaign.investors[investorID].balance;\n        campaign.investors[investorID].balance = 0;\n        msg.sender.transfer(refund.div(multiplier));\n    }\n\n    // function getInvestorCampaigns() public returns(uint[]){\n    //     uint256[] storage investorCampaignsInside = investorCampaigns;\n    //     for (uint256 i = 1; i <= numCampaigns; i++) {\n    //         for (uint256 j = 1; j <= campaigns[i].numInvestors; j++) {\n    //             if(campaigns[i].investors[j].addr == msg.sender){\n    //                 investorCampaignsInside.push(i);\n    //             }\n    //         }\n    //     }\n    //     return investorCampaignsInside;\n    // }\n\n    function withdrawEmergencyMoney() onlyInEmergency public{\n        uint256 refund;\n        for (uint256 i = 1; i <= numCampaigns; i++) {\n            for (uint256 j = 1; j <= campaigns[i].numInvestors; j++) {\n                if(campaigns[i].investors[j].addr == msg.sender){\n                    refund = refund.add(campaigns[i].investors[j].amount);\n                }\n            }\n        }\n        msg.sender.transfer(refund.div(multiplier));\n    }\n}",
  "sourcePath": "/Users/jon/blockchain-dev/CrowfundingFactory/contracts/CrowdfundingFactory.sol",
  "compiler": {
    "name": "solc",
    "version": "0.4.24+commit.e67f0147.Emscripten.clang"
  },
  "schemaVersion": "2.0.1",
  "updatedAt": "2018-08-25T02:44:59.040Z"
}