{
  "contractName": "CrowdfundingFactory",
  "abi": [
    {
      "constant": true,
      "inputs": [
        {
          "name": "",
          "type": "uint256"
        }
      ],
      "name": "campaigns",
      "outputs": [
        {
          "name": "name",
          "type": "string"
        },
        {
          "name": "imageUrl",
          "type": "string"
        },
        {
          "name": "amount",
          "type": "uint256"
        },
        {
          "name": "goal",
          "type": "uint256"
        },
        {
          "name": "beneficiary",
          "type": "address"
        },
        {
          "name": "endDate",
          "type": "uint256"
        },
        {
          "name": "refundDeadline",
          "type": "uint256"
        },
        {
          "name": "rate",
          "type": "uint256"
        },
        {
          "name": "term",
          "type": "uint256"
        },
        {
          "name": "status",
          "type": "uint8"
        },
        {
          "name": "debt",
          "type": "uint256"
        },
        {
          "name": "numInvestors",
          "type": "uint256"
        }
      ],
      "payable": false,
      "stateMutability": "view",
      "type": "function"
    },
    {
      "constant": true,
      "inputs": [],
      "name": "numCampaigns",
      "outputs": [
        {
          "name": "",
          "type": "uint256"
        }
      ],
      "payable": false,
      "stateMutability": "view",
      "type": "function"
    },
    {
      "inputs": [],
      "payable": false,
      "stateMutability": "nonpayable",
      "type": "constructor"
    },
    {
      "constant": false,
      "inputs": [],
      "name": "toggleEmergency",
      "outputs": [],
      "payable": false,
      "stateMutability": "nonpayable",
      "type": "function"
    },
    {
      "constant": false,
      "inputs": [
        {
          "name": "name",
          "type": "string"
        },
        {
          "name": "imageUrl",
          "type": "string"
        },
        {
          "name": "goal",
          "type": "uint256"
        },
        {
          "name": "endDate",
          "type": "uint256"
        },
        {
          "name": "rate",
          "type": "uint256"
        },
        {
          "name": "term",
          "type": "uint256"
        }
      ],
      "name": "createCampaign",
      "outputs": [
        {
          "name": "",
          "type": "string"
        }
      ],
      "payable": false,
      "stateMutability": "nonpayable",
      "type": "function"
    },
    {
      "constant": false,
      "inputs": [
        {
          "name": "campaignID",
          "type": "uint256"
        },
        {
          "name": "todayDate",
          "type": "uint256"
        }
      ],
      "name": "contribute",
      "outputs": [],
      "payable": true,
      "stateMutability": "payable",
      "type": "function"
    },
    {
      "constant": true,
      "inputs": [
        {
          "name": "campaignID",
          "type": "uint256"
        },
        {
          "name": "investorAddr",
          "type": "address"
        }
      ],
      "name": "getInvestorID",
      "outputs": [
        {
          "name": "",
          "type": "uint256"
        }
      ],
      "payable": false,
      "stateMutability": "view",
      "type": "function"
    },
    {
      "constant": true,
      "inputs": [
        {
          "name": "investorID",
          "type": "uint256"
        },
        {
          "name": "campaignID",
          "type": "uint256"
        }
      ],
      "name": "getInvestorInCampaign",
      "outputs": [
        {
          "name": "",
          "type": "address"
        },
        {
          "name": "",
          "type": "uint256"
        },
        {
          "name": "",
          "type": "uint256"
        }
      ],
      "payable": false,
      "stateMutability": "view",
      "type": "function"
    },
    {
      "constant": false,
      "inputs": [
        {
          "name": "campaignID",
          "type": "uint256"
        },
        {
          "name": "todayDate",
          "type": "uint256"
        },
        {
          "name": "refundDeadline",
          "type": "uint256"
        }
      ],
      "name": "goalReached",
      "outputs": [],
      "payable": true,
      "stateMutability": "payable",
      "type": "function"
    },
    {
      "constant": false,
      "inputs": [
        {
          "name": "campaignID",
          "type": "uint256"
        },
        {
          "name": "todayDate",
          "type": "uint256"
        }
      ],
      "name": "failCampaign",
      "outputs": [],
      "payable": false,
      "stateMutability": "nonpayable",
      "type": "function"
    },
    {
      "constant": false,
      "inputs": [
        {
          "name": "campaignID",
          "type": "uint256"
        }
      ],
      "name": "claimRefund",
      "outputs": [],
      "payable": true,
      "stateMutability": "payable",
      "type": "function"
    },
    {
      "constant": false,
      "inputs": [
        {
          "name": "campaignID",
          "type": "uint256"
        },
        {
          "name": "todayDate",
          "type": "uint256"
        }
      ],
      "name": "payDebt",
      "outputs": [],
      "payable": true,
      "stateMutability": "payable",
      "type": "function"
    },
    {
      "constant": false,
      "inputs": [
        {
          "name": "campaignID",
          "type": "uint256"
        }
      ],
      "name": "claimShare",
      "outputs": [],
      "payable": true,
      "stateMutability": "payable",
      "type": "function"
    },
    {
      "constant": false,
      "inputs": [],
      "name": "withdrawEmergencyMoney",
      "outputs": [],
      "payable": false,
      "stateMutability": "nonpayable",
      "type": "function"
    }
  ],
  "bytecode": "0x608060405260646000556000600260146101000a81548160ff02191690831515021790555034801561003057600080fd5b5033600260006101000a81548173ffffffffffffffffffffffffffffffffffffffff021916908373ffffffffffffffffffffffffffffffffffffffff1602179055506117f7806100816000396000f3006080604052600436106100c5576000357c0100000000000000000000000000000000000000000000000000000000900463ffffffff1680630cc03e7a146100ca578063141961bc146100ea5780632897c24a1461027c5780632c0f7b6f146103cc5780632d1d2744146103f757806348439e0b1461040e5780635b7baf641461044257806362cc01e7146104625780638c5909171461048c5780639e99f459146104b6578063adff220d146104cd578063c218b1be14610504578063f46516b514610589575b600080fd5b6100e8600480360381019080803590602001909291905050506105ea565b005b3480156100f657600080fd5b50610115600480360381019080803590602001909291905050506106f7565b6040518080602001806020018d81526020018c81526020018b73ffffffffffffffffffffffffffffffffffffffff1673ffffffffffffffffffffffffffffffffffffffff1681526020018a815260200189815260200188815260200187815260200186600381111561018357fe5b60ff16815260200185815260200184815260200183810383528f818151815260200191508051906020019080838360005b838110156101cf5780820151818401526020810190506101b4565b50505050905090810190601f1680156101fc5780820380516001836020036101000a031916815260200191505b5083810382528e818151815260200191508051906020019080838360005b8381101561023557808201518184015260208101905061021a565b50505050905090810190601f1680156102625780820380516001836020036101000a031916815260200191505b509e50505050505050505050505050505060405180910390f35b34801561028857600080fd5b50610351600480360381019080803590602001908201803590602001908080601f0160208091040260200160405190810160405280939291908181526020018383808284378201915050505050509192919290803590602001908201803590602001908080601f0160208091040260200160405190810160405280939291908181526020018383808284378201915050505050509192919290803590602001909291908035906020019092919080359060200190929190803590602001909291905050506108b4565b6040518080602001828103825283818151815260200191508051906020019080838360005b83811015610391578082015181840152602081019050610376565b50505050905090810190601f1680156103be5780820380516001836020036101000a031916815260200191505b509250505060405180910390f35b3480156103d857600080fd5b506103e1610b2c565b6040518082815260200191505060405180910390f35b34801561040357600080fd5b5061040c610b32565b005b610440600480360381019080803590602001909291908035906020019092919080359060200190929190505050610bb5565b005b61046060048036038101908080359060200190929190505050610d14565b005b61048a6004803603810190808035906020019092919080359060200190929190505050610e6a565b005b6104b46004803603810190808035906020019092919080359060200190929190505050610fab565b005b3480156104c257600080fd5b506104cb611204565b005b3480156104d957600080fd5b50610502600480360381019080803590602001909291908035906020019092919050505061138b565b005b34801561051057600080fd5b506105396004803603810190808035906020019092919080359060200190929190505050611488565b604051808473ffffffffffffffffffffffffffffffffffffffff1673ffffffffffffffffffffffffffffffffffffffff168152602001838152602001828152602001935050505060405180910390f35b34801561059557600080fd5b506105d460048036038101908080359060200190929190803573ffffffffffffffffffffffffffffffffffffffff16906020019092919050505061151c565b6040518082815260200191505060405180910390f35b6000806000600260149054906101000a900460ff1615156106f157600360008581526020019081526020016000209250610624843361151c565b915060008211151561063557600080fd5b600083600c0160008481526020019081526020016000206002015411151561065c57600080fd5b82600c016000838152602001908152602001600020600201549050600083600c016000848152602001908152602001600020600201819055503373ffffffffffffffffffffffffffffffffffffffff166108fc6106c4600054846115d690919063ffffffff16565b9081150290604051600060405180830381858888f193505050501580156106ef573d6000803e3d6000fd5b505b50505050565b6003602052806000526040600020600091509050806000018054600181600116156101000203166002900480601f0160208091040260200160405190810160405280929190818152602001828054600181600116156101000203166002900480156107a35780601f10610778576101008083540402835291602001916107a3565b820191906000526020600020905b81548152906001019060200180831161078657829003601f168201915b505050505090806001018054600181600116156101000203166002900480601f0160208091040260200160405190810160405280929190818152602001828054600181600116156101000203166002900480156108415780601f1061081657610100808354040283529160200191610841565b820191906000526020600020905b81548152906001019060200180831161082457829003601f168201915b5050505050908060020154908060030154908060040160009054906101000a900473ffffffffffffffffffffffffffffffffffffffff16908060050154908060060154908060070154908060080154908060090160009054906101000a900460ff169080600a01549080600b015490508c565b60606000600160008154809291906001019190505550600154905061018060405190810160405280898152602001888152602001600081526020016109046000548961160090919063ffffffff16565b81526020013373ffffffffffffffffffffffffffffffffffffffff168152602001868152602001600081526020018581526020018481526020016000600381111561094b57fe5b815260200160008152602001600081525060036000838152602001908152602001600020600082015181600001908051906020019061098b929190611726565b5060208201518160010190805190602001906109a8929190611726565b50604082015181600201556060820151816003015560808201518160040160006101000a81548173ffffffffffffffffffffffffffffffffffffffff021916908373ffffffffffffffffffffffffffffffffffffffff16021790555060a0820151816005015560c0820151816006015560e0820151816007015561010082015181600801556101208201518160090160006101000a81548160ff02191690836003811115610a5257fe5b021790555061014082015181600a015561016082015181600b0155905050600360008281526020019081526020016000206000018054600181600116156101000203166002900480601f016020809104026020016040519081016040528092919081815260200182805460018160011615610100020316600290048015610b1a5780601f10610aef57610100808354040283529160200191610b1a565b820191906000526020600020905b815481529060010190602001808311610afd57829003601f168201915b50505050509150509695505050505050565b60015481565b600260009054906101000a900473ffffffffffffffffffffffffffffffffffffffff1673ffffffffffffffffffffffffffffffffffffffff163373ffffffffffffffffffffffffffffffffffffffff161415610bb357600260149054906101000a900460ff1615600260146101000a81548160ff0219169083151502179055505b565b6000806000858560036000838152602001908152602001600020600501548111151515610be157600080fd5b600260149054906101000a900460ff161515610d0a5760036000898152602001908152602001600020945084600201548560030154141515610c2257600080fd5b846002015493506000856002018190555060018560090160006101000a81548160ff02191690836003811115610c5457fe5b021790555060648560070154866003015402811515610c6f57fe5b0492508285600301540185600a01819055508585600601819055508460040160009054906101000a900473ffffffffffffffffffffffffffffffffffffffff1673ffffffffffffffffffffffffffffffffffffffff166108fc610cdd600054876115d690919063ffffffff16565b9081150290604051600060405180830381858888f19350505050158015610d08573d6000803e3d6000fd5b505b5050505050505050565b600080600083600380811115610d2657fe5b6003600083815260200190815260200160002060090160009054906101000a900460ff166003811115610d5557fe5b141515610d6157600080fd5b600260149054906101000a900460ff161515610e6357600360008681526020019081526020016000209350610d96853361151c565b9250600083111515610da757600080fd5b600084600c01600085815260200190815260200160002060020154111515610dce57600080fd5b83600c016000848152602001908152602001600020600201549150600084600c016000858152602001908152602001600020600201819055503373ffffffffffffffffffffffffffffffffffffffff166108fc610e36600054856115d690919063ffffffff16565b9081150290604051600060405180830381858888f19350505050158015610e61573d6000803e3d6000fd5b505b5050505050565b600080836003600082815260200190815260200160002060040160009054906101000a900473ffffffffffffffffffffffffffffffffffffffff1673ffffffffffffffffffffffffffffffffffffffff163373ffffffffffffffffffffffffffffffffffffffff16141515610ede57600080fd5b600260149054906101000a900460ff161515610fa457600360008681526020019081526020016000209250610f1e6000543461160090919063ffffffff16565b9150600083600a0154111515610f3357600080fd5b82600601548411151515610f4657600080fd5b610f5d8284600a015461163e90919063ffffffff16565b83600a0181905550600083600a01541415610f995760028360090160006101000a81548160ff02191690836003811115610f9357fe5b02179055505b610fa3858361165f565b5b5050505050565b60008060008460036000828152602001908152602001600020600301546003600083815260200190815260200160002060020154101515610feb57600080fd5b8560006003811115610ff957fe5b6003600083815260200190815260200160002060090160009054906101000a900460ff16600381111561102857fe5b14151561103457600080fd5b86866003600083815260200190815260200160002060050154811115151561105b57600080fd5b600260149054906101000a900460ff1615156111f957600360008a8152602001908152602001600020965061109b6000543461160090919063ffffffff16565b9550866003015486886002015401111515156110b657600080fd5b6110c0893361151c565b94506000851115611117576110f68688600c0160008881526020019081526020016000206001015461170590919063ffffffff16565b87600c016000878152602001908152602001600020600101819055506111d9565b86600b016000815480929190600101919050555086600b015494506060604051908101604052803373ffffffffffffffffffffffffffffffffffffffff168152602001878152602001600081525087600c01600087815260200190815260200160002060008201518160000160006101000a81548173ffffffffffffffffffffffffffffffffffffffff021916908373ffffffffffffffffffffffffffffffffffffffff16021790555060208201518160010155604082015181600201559050505b6111f086886002015461170590919063ffffffff16565b87600201819055505b505050505050505050565b6000806000600260149054906101000a900460ff161561138657600191505b6001548211151561132a57600190505b60036000838152602001908152602001600020600b01548111151561131d573373ffffffffffffffffffffffffffffffffffffffff1660036000848152602001908152602001600020600c01600083815260200190815260200160002060000160009054906101000a900473ffffffffffffffffffffffffffffffffffffffff1673ffffffffffffffffffffffffffffffffffffffff1614156113105761130d60036000848152602001908152602001600020600c016000838152602001908152602001600020600101548461170590919063ffffffff16565b92505b8080600101915050611233565b8180600101925050611223565b3373ffffffffffffffffffffffffffffffffffffffff166108fc611359600054866115d690919063ffffffff16565b9081150290604051600060405180830381858888f19350505050158015611384573d6000803e3d6000fd5b505b505050565b60008083600360008281526020019081526020016000206003015460036000838152602001908152602001600020600201541015156113c957600080fd5b600260149054906101000a900460ff1615156114815760036000868152602001908152602001600020925083836005015410151561140657600080fd5b60038360090160006101000a81548160ff0219169083600381111561142757fe5b0217905550600191505b82600b0154821115156114805782600c0160008381526020019081526020016000206001015483600c016000848152602001908152602001600020600201819055508180600101925050611431565b5b5050505050565b60008060008060036000868152602001908152602001600020905080600c01600087815260200190815260200160002060000160009054906101000a900473ffffffffffffffffffffffffffffffffffffffff1681600c0160008881526020019081526020016000206001015482600c01600089815260200190815260200160002060020154935093509350509250925092565b6000806000600360008681526020019081526020016000209150600190505b81600b0154811115156115c9578373ffffffffffffffffffffffffffffffffffffffff1682600c01600083815260200190815260200160002060000160009054906101000a900473ffffffffffffffffffffffffffffffffffffffff1673ffffffffffffffffffffffffffffffffffffffff1614156115bc578092506115ce565b808060010191505061153b565b600092505b505092915050565b6000806000831115156115e857600080fd5b82848115156115f357fe5b0490508091505092915050565b60008060008414156116155760009150611637565b828402905082848281151561162657fe5b0414151561163357600080fd5b8091505b5092915050565b60008083831115151561165057600080fd5b82840390508091505092915050565b600080600080600360008781526020019081526020016000209350600192505b83600b0154831115156116fd578360030154606485600c01600086815260200190815260200160002060010154028115156116b657fe5b04915060648286028115156116c757fe5b0490508084600c01600085815260200190815260200160002060020160008282540192505081905550828060010193505061167f565b505050505050565b600080828401905083811015151561171c57600080fd5b8091505092915050565b828054600181600116156101000203166002900490600052602060002090601f016020900481019282601f1061176757805160ff1916838001178555611795565b82800160010185558215611795579182015b82811115611794578251825591602001919060010190611779565b5b5090506117a291906117a6565b5090565b6117c891905b808211156117c45760008160009055506001016117ac565b5090565b905600a165627a7a72305820e38c3fc1d56e597660dcc3eda76531a86db0e2a50ad5fec4b978515fb415c8be0029",
  "source": "pragma solidity ^0.4.17;\nimport \"./SafeMath.sol\";\n\ncontract CrowdfundingFactory {\n    using SafeMath for uint256;\n\n    uint256 multiplier = 10**2;\n    uint256 public numCampaigns;\n    // uint256[] investorCampaigns;\n    address private owner;\n    bool private stopped = false;\n    mapping(uint256 => Campaign) public campaigns;\n    \n    enum Status { \n        Active, \n        Refunding,\n        Terminated, \n        Failed\n    }\n\n    struct Investor{\n        address addr;\n        uint256 amount;\n        uint256 balance;\n    }\n\n    struct Campaign{\n        string name;\n        string imageUrl;\n        uint256 amount;\n        uint256 goal;\n        address beneficiary;\n        uint256 endDate;\n        uint256 refundDeadline;\n        uint256 rate;\n        uint256 term;\n        Status status;\n        uint256 debt;\n        uint256 numInvestors;\n        mapping(uint => Investor) investors;\n    }\n\n    modifier isOwner() { if(msg.sender == owner) _; }\n    modifier stopInEmergency { if (!stopped) _; }\n    modifier onlyInEmergency { if (stopped) _; }\n    \n    modifier active(uint256 _campaignID){\n        require(campaigns[_campaignID].status == Status.Active);\n        _;\n    }\n    modifier failed(uint256 _campaignID){\n        require(campaigns[_campaignID].status == Status.Failed);\n        _;\n    }\n    modifier activeValidDate(uint256 _campaignID, uint256 _todayDate){\n        require(_todayDate <= campaigns[_campaignID].endDate);\n        _;\n    }\n    modifier validAmount(uint256 _campaignID){\n        require(campaigns[_campaignID].amount < campaigns[_campaignID].goal);\n        _;\n    }\n    modifier isBeneficiary(uint256 _campaignID){\n        require(msg.sender == campaigns[_campaignID].beneficiary);\n        _;\n    }\n\n    constructor(){\n        owner = msg.sender;\n    }\n\n    function toggleEmergency() isOwner public{\n        stopped = !stopped;\n    }\n\n    function createCampaign(string name, string imageUrl, uint256 goal, uint256 endDate, uint256 rate, uint256 term) public returns(string){\n        numCampaigns++;\n        uint256 campaignID = numCampaigns;\n        campaigns[campaignID] = Campaign(name, imageUrl, 0, goal.mul(multiplier), msg.sender, endDate, 0, rate, term, Status.Active, 0, 0);\n        return campaigns[campaignID].name;\n    }\n\n    // function getCampaigns() public view returns(uint256){\n    //     return numCampaigns;\n    // }\n\n    // function getCampaign(uint256 campaignID) public view returns(string, uint256, uint256, address, uint256, uint256, uint256, uint, uint, uint){\n    //     Campaign storage campaign = campaigns[campaignID];\n    //     return (campaign.name, campaign.amount, campaign.goal, campaign.beneficiary, campaign.endDate, campaign.rate, campaign.term, uint(campaign.status), campaign.debt, campaign.refundDeadline);\n    // }\n\n    function contribute(uint256 campaignID, uint256 todayDate) validAmount(campaignID) active(campaignID) activeValidDate(campaignID, todayDate) stopInEmergency public payable{\n        Campaign storage campaign = campaigns[campaignID];\n        uint value = msg.value.mul(multiplier);\n        require(campaign.amount + value <= campaign.goal);\n        uint256 investorID = getInvestorID(campaignID, msg.sender);\n        if(investorID > 0){\n            campaign.investors[investorID].amount = campaign.investors[investorID].amount.add(value);\n        } else{\n            campaign.numInvestors++;\n            investorID = campaign.numInvestors;\n            campaign.investors[investorID] = Investor(msg.sender, value, 0);\n        }\n        campaign.amount = campaign.amount.add(value);\n    }\n\n    // function getDebt(uint256 campaignID) isBeneficiary(campaignID) public view returns(uint256){\n    //     Campaign storage campaign = campaigns[campaignID];\n    //     return campaign.debt;\n    // }\n\n    function getInvestorID(uint256 campaignID, address investorAddr) public view returns(uint256){\n        Campaign storage campaign = campaigns[campaignID];\n        for (uint256 i = 1; i <= campaign.numInvestors; i ++) {\n            if(campaign.investors[i].addr == investorAddr){\n                return i;\n            }\n        }\n        return 0;\n    }\n\n    function getInvestorInCampaign(uint256 investorID, uint256 campaignID) public view returns(address, uint256, uint256){\n        Campaign storage campaign = campaigns[campaignID];\n        return (campaign.investors[investorID].addr, campaign.investors[investorID].amount, campaign.investors[investorID].balance);\n    }\n\n    function goalReached(uint256 campaignID, uint256 todayDate, uint256 refundDeadline) activeValidDate(campaignID, todayDate) stopInEmergency public payable {\n        Campaign storage campaign = campaigns[campaignID];\n        require(campaign.goal == campaign.amount);\n        uint256 amount = campaign.amount;\n        campaign.amount = 0;\n        campaign.status = Status.Refunding;\n        uint256 percentage = (campaign.goal*campaign.rate) / 100;\n        campaign.debt = campaign.goal + percentage;\n        campaign.refundDeadline = refundDeadline;\n        campaign.beneficiary.transfer(amount.div(multiplier));\n    }\n\n    function failCampaign(uint256 campaignID, uint256 todayDate) validAmount(campaignID) stopInEmergency public {\n        Campaign storage campaign = campaigns[campaignID];\n        require(campaign.endDate < todayDate);\n        campaign.status = Status.Failed;\n        for (uint256 i = 1; i <= campaign.numInvestors; i ++) {\n            campaign.investors[i].balance = campaign.investors[i].amount;\n        }\n    }\n\n    function claimRefund(uint256 campaignID) failed(campaignID) stopInEmergency public payable {\n        Campaign storage campaign = campaigns[campaignID];\n        uint256 investorID = getInvestorID(campaignID, msg.sender);\n        require(investorID > 0);\n        require(campaign.investors[investorID].balance > 0);\n        uint256 refund = campaign.investors[investorID].balance;\n        campaign.investors[investorID].balance = 0;\n        msg.sender.transfer(refund.div(multiplier));\n    }\n\n    function payDebt(uint256 campaignID, uint256 todayDate) isBeneficiary(campaignID) stopInEmergency public payable {\n        Campaign storage campaign = campaigns[campaignID];\n        uint256 value = msg.value.mul(multiplier);\n        require(campaign.debt > 0);\n        require(todayDate <= campaign.refundDeadline);\n        campaign.debt = campaign.debt.sub(value);\n        if(campaign.debt == 0){\n            campaign.status = Status.Terminated;\n        }\n        releaseHolderShares(campaignID, value);\n    }\n\n    function releaseHolderShares(uint256 campaignID, uint depositAmount) private {\n        Campaign storage campaign = campaigns[campaignID];\n        for (uint256 i = 1; i <= campaign.numInvestors; i ++) {\n            uint256 percentage = (campaign.investors[i].amount * 100) / campaign.goal;\n            uint256 holderShare = (depositAmount * percentage) / 100;\n            campaign.investors[i].balance += holderShare;\n        }\n    }\n\n    function claimShare(uint256 campaignID) stopInEmergency public payable {\n        Campaign storage campaign = campaigns[campaignID];\n        uint256 investorID = getInvestorID(campaignID, msg.sender);\n        require(investorID > 0);\n        require(campaign.investors[investorID].balance > 0);\n        uint256 refund = campaign.investors[investorID].balance;\n        campaign.investors[investorID].balance = 0;\n        msg.sender.transfer(refund.div(multiplier));\n    }\n\n    // function getInvestorCampaigns() public returns(uint[]){\n    //     uint256[] storage investorCampaignsInside = investorCampaigns;\n    //     for (uint256 i = 1; i <= numCampaigns; i++) {\n    //         for (uint256 j = 1; j <= campaigns[i].numInvestors; j++) {\n    //             if(campaigns[i].investors[j].addr == msg.sender){\n    //                 investorCampaignsInside.push(i);\n    //             }\n    //         }\n    //     }\n    //     return investorCampaignsInside;\n    // }\n\n    function withdrawEmergencyMoney() onlyInEmergency public{\n        uint256 refund;\n        for (uint256 i = 1; i <= numCampaigns; i++) {\n            for (uint256 j = 1; j <= campaigns[i].numInvestors; j++) {\n                if(campaigns[i].investors[j].addr == msg.sender){\n                    refund = refund.add(campaigns[i].investors[j].amount);\n                }\n            }\n        }\n        msg.sender.transfer(refund.div(multiplier));\n    }\n}",
  "sourcePath": "/Users/jon/blockchain-dev/CrowfundingFactory/contracts/CrowdfundingFactory.sol",
  "compiler": {
    "name": "solc",
    "version": "0.4.24+commit.e67f0147.Emscripten.clang"
  },
  "schemaVersion": "2.0.1",
  "updatedAt": "2018-08-24T23:22:26.741Z"
}