{
  "contractName": "CrowdfundingFactory",
  "abi": [
    {
      "constant": true,
      "inputs": [
        {
          "name": "",
          "type": "uint256"
        }
      ],
      "name": "campaigns",
      "outputs": [
        {
          "name": "name",
          "type": "string"
        },
        {
          "name": "amount",
          "type": "uint256"
        },
        {
          "name": "goal",
          "type": "uint256"
        },
        {
          "name": "beneficiary",
          "type": "address"
        },
        {
          "name": "startDate",
          "type": "uint256"
        },
        {
          "name": "endDate",
          "type": "uint256"
        },
        {
          "name": "refundDeadline",
          "type": "uint256"
        },
        {
          "name": "rate",
          "type": "uint256"
        },
        {
          "name": "term",
          "type": "uint256"
        },
        {
          "name": "status",
          "type": "uint8"
        },
        {
          "name": "debt",
          "type": "uint256"
        },
        {
          "name": "numInvestors",
          "type": "uint256"
        }
      ],
      "payable": false,
      "stateMutability": "view",
      "type": "function"
    },
    {
      "constant": true,
      "inputs": [],
      "name": "numCampaigns",
      "outputs": [
        {
          "name": "",
          "type": "uint256"
        }
      ],
      "payable": false,
      "stateMutability": "view",
      "type": "function"
    },
    {
      "inputs": [],
      "payable": false,
      "stateMutability": "nonpayable",
      "type": "constructor"
    },
    {
      "constant": false,
      "inputs": [],
      "name": "toggleEmergency",
      "outputs": [],
      "payable": false,
      "stateMutability": "nonpayable",
      "type": "function"
    },
    {
      "constant": false,
      "inputs": [
        {
          "name": "name",
          "type": "string"
        },
        {
          "name": "goal",
          "type": "uint256"
        },
        {
          "name": "startDate",
          "type": "uint256"
        },
        {
          "name": "endDate",
          "type": "uint256"
        },
        {
          "name": "rate",
          "type": "uint256"
        },
        {
          "name": "term",
          "type": "uint256"
        }
      ],
      "name": "createCampaign",
      "outputs": [
        {
          "name": "",
          "type": "string"
        }
      ],
      "payable": false,
      "stateMutability": "nonpayable",
      "type": "function"
    },
    {
      "constant": true,
      "inputs": [],
      "name": "getCampaigns",
      "outputs": [
        {
          "name": "",
          "type": "uint256"
        }
      ],
      "payable": false,
      "stateMutability": "view",
      "type": "function"
    },
    {
      "constant": true,
      "inputs": [
        {
          "name": "campaignID",
          "type": "uint256"
        }
      ],
      "name": "getCampaign",
      "outputs": [
        {
          "name": "",
          "type": "string"
        },
        {
          "name": "",
          "type": "uint256"
        },
        {
          "name": "",
          "type": "uint256"
        },
        {
          "name": "",
          "type": "address"
        },
        {
          "name": "",
          "type": "uint256"
        },
        {
          "name": "",
          "type": "uint256"
        },
        {
          "name": "",
          "type": "uint256"
        },
        {
          "name": "",
          "type": "uint256"
        },
        {
          "name": "",
          "type": "uint256"
        }
      ],
      "payable": false,
      "stateMutability": "view",
      "type": "function"
    },
    {
      "constant": false,
      "inputs": [
        {
          "name": "campaignID",
          "type": "uint256"
        },
        {
          "name": "todayDate",
          "type": "uint256"
        }
      ],
      "name": "contribute",
      "outputs": [],
      "payable": true,
      "stateMutability": "payable",
      "type": "function"
    },
    {
      "constant": true,
      "inputs": [
        {
          "name": "campaignID",
          "type": "uint256"
        }
      ],
      "name": "getDebt",
      "outputs": [
        {
          "name": "",
          "type": "uint256"
        }
      ],
      "payable": false,
      "stateMutability": "view",
      "type": "function"
    },
    {
      "constant": true,
      "inputs": [
        {
          "name": "campaignID",
          "type": "uint256"
        },
        {
          "name": "investorAddr",
          "type": "address"
        }
      ],
      "name": "getInvestorID",
      "outputs": [
        {
          "name": "",
          "type": "uint256"
        }
      ],
      "payable": false,
      "stateMutability": "view",
      "type": "function"
    },
    {
      "constant": true,
      "inputs": [
        {
          "name": "investorID",
          "type": "uint256"
        },
        {
          "name": "campaignID",
          "type": "uint256"
        }
      ],
      "name": "getInvestorInCampaign",
      "outputs": [
        {
          "name": "",
          "type": "address"
        },
        {
          "name": "",
          "type": "uint256"
        },
        {
          "name": "",
          "type": "uint256"
        }
      ],
      "payable": false,
      "stateMutability": "view",
      "type": "function"
    },
    {
      "constant": false,
      "inputs": [
        {
          "name": "campaignID",
          "type": "uint256"
        },
        {
          "name": "todayDate",
          "type": "uint256"
        },
        {
          "name": "refundDeadline",
          "type": "uint256"
        }
      ],
      "name": "goalReached",
      "outputs": [],
      "payable": true,
      "stateMutability": "payable",
      "type": "function"
    },
    {
      "constant": false,
      "inputs": [
        {
          "name": "campaignID",
          "type": "uint256"
        },
        {
          "name": "todayDate",
          "type": "uint256"
        }
      ],
      "name": "failCampaign",
      "outputs": [],
      "payable": false,
      "stateMutability": "nonpayable",
      "type": "function"
    },
    {
      "constant": false,
      "inputs": [
        {
          "name": "campaignID",
          "type": "uint256"
        }
      ],
      "name": "claimRefund",
      "outputs": [],
      "payable": true,
      "stateMutability": "payable",
      "type": "function"
    },
    {
      "constant": false,
      "inputs": [
        {
          "name": "campaignID",
          "type": "uint256"
        },
        {
          "name": "todayDate",
          "type": "uint256"
        }
      ],
      "name": "payDebt",
      "outputs": [],
      "payable": true,
      "stateMutability": "payable",
      "type": "function"
    },
    {
      "constant": false,
      "inputs": [
        {
          "name": "campaignID",
          "type": "uint256"
        }
      ],
      "name": "claimShare",
      "outputs": [],
      "payable": true,
      "stateMutability": "payable",
      "type": "function"
    },
    {
      "constant": false,
      "inputs": [],
      "name": "getInvestorCampaigns",
      "outputs": [
        {
          "name": "",
          "type": "uint256[]"
        }
      ],
      "payable": false,
      "stateMutability": "nonpayable",
      "type": "function"
    },
    {
      "constant": false,
      "inputs": [],
      "name": "withdrawEmergencyMoney",
      "outputs": [],
      "payable": false,
      "stateMutability": "nonpayable",
      "type": "function"
    }
  ],
  "bytecode": "0x608060405260646000556000600360146101000a81548160ff02191690831515021790555034801561003057600080fd5b5033600360006101000a81548173ffffffffffffffffffffffffffffffffffffffff021916908373ffffffffffffffffffffffffffffffffffffffff160217905550611bf9806100816000396000f3006080604052600436106100f1576000357c0100000000000000000000000000000000000000000000000000000000900463ffffffff1680630cc03e7a146100f6578063141961bc146101165780632c0f7b6f146102435780632d1d27441461026e57806348439e0b146102855780635598f8cc146102b95780635b7baf64146103c357806362cc01e7146103e35780636839027d1461040d5780638c590917146104795780639e99f459146104a3578063a6b03633146104ba578063adff220d146104e5578063c218b1be1461051c578063c9dd1f3c146105a1578063d5a622d8146105e2578063f46516b5146106f6575b600080fd5b61011460048036038101908080359060200190929190505050610757565b005b34801561012257600080fd5b5061014160048036038101908080359060200190929190505050610864565b60405180806020018d81526020018c81526020018b73ffffffffffffffffffffffffffffffffffffffff1673ffffffffffffffffffffffffffffffffffffffff1681526020018a81526020018981526020018881526020018781526020018681526020018560038111156101b157fe5b60ff16815260200184815260200183815260200182810382528e818151815260200191508051906020019080838360005b838110156101fd5780820151818401526020810190506101e2565b50505050905090810190601f16801561022a5780820380516001836020036101000a031916815260200191505b509d505050505050505050505050505060405180910390f35b34801561024f57600080fd5b50610258610989565b6040518082815260200191505060405180910390f35b34801561027a57600080fd5b5061028361098f565b005b6102b7600480360381019080803590602001909291908035906020019092919080359060200190929190505050610a12565b005b3480156102c557600080fd5b506102e460048036038101908080359060200190929190505050610b71565b60405180806020018a81526020018981526020018873ffffffffffffffffffffffffffffffffffffffff1673ffffffffffffffffffffffffffffffffffffffff16815260200187815260200186815260200185815260200184815260200183815260200182810382528b818151815260200191508051906020019080838360005b83811015610380578082015181840152602081019050610365565b50505050905090810190601f1680156103ad5780820380516001836020036101000a031916815260200191505b509a505050505050505050505060405180910390f35b6103e160048036038101908080359060200190929190505050610cb6565b005b61040b6004803603810190808035906020019092919080359060200190929190505050610e0c565b005b34801561041957600080fd5b50610422610f4d565b6040518080602001828103825283818151815260200191508051906020019060200280838360005b8381101561046557808201518184015260208101905061044a565b505050509050019250505060405180910390f35b6104a160048036038101908080359060200190929190803590602001909291905050506110a8565b005b3480156104af57600080fd5b506104b8611301565b005b3480156104c657600080fd5b506104cf611488565b6040518082815260200191505060405180910390f35b3480156104f157600080fd5b5061051a6004803603810190808035906020019092919080359060200190929190505050611492565b005b34801561052857600080fd5b50610551600480360381019080803590602001909291908035906020019092919050505061158f565b604051808473ffffffffffffffffffffffffffffffffffffffff1673ffffffffffffffffffffffffffffffffffffffff168152602001838152602001828152602001935050505060405180910390f35b3480156105ad57600080fd5b506105cc60048036038101908080359060200190929190505050611623565b6040518082815260200191505060405180910390f35b3480156105ee57600080fd5b5061067b600480360381019080803590602001908201803590602001908080601f016020809104026020016040519081016040528093929190818152602001838380828437820191505050505050919291929080359060200190929190803590602001909291908035906020019092919080359060200190929190803590602001909291905050506116ba565b6040518080602001828103825283818151815260200191508051906020019080838360005b838110156106bb5780820151818401526020810190506106a0565b50505050905090810190601f1680156106e85780820380516001836020036101000a031916815260200191505b509250505060405180910390f35b34801561070257600080fd5b5061074160048036038101908080359060200190929190803573ffffffffffffffffffffffffffffffffffffffff16906020019092919050505061191e565b6040518082815260200191505060405180910390f35b6000806000600360149054906101000a900460ff16151561085e57600460008581526020019081526020016000209250610791843361191e565b91506000821115156107a257600080fd5b600083600c016000848152602001908152602001600020600201541115156107c957600080fd5b82600c016000838152602001908152602001600020600201549050600083600c016000848152602001908152602001600020600201819055503373ffffffffffffffffffffffffffffffffffffffff166108fc610831600054846119d890919063ffffffff16565b9081150290604051600060405180830381858888f1935050505015801561085c573d6000803e3d6000fd5b505b50505050565b6004602052806000526040600020600091509050806000018054600181600116156101000203166002900480601f0160208091040260200160405190810160405280929190818152602001828054600181600116156101000203166002900480156109105780601f106108e557610100808354040283529160200191610910565b820191906000526020600020905b8154815290600101906020018083116108f357829003601f168201915b5050505050908060010154908060020154908060030160009054906101000a900473ffffffffffffffffffffffffffffffffffffffff16908060040154908060050154908060060154908060070154908060080154908060090160009054906101000a900460ff169080600a01549080600b015490508c565b60015481565b600360009054906101000a900473ffffffffffffffffffffffffffffffffffffffff1673ffffffffffffffffffffffffffffffffffffffff163373ffffffffffffffffffffffffffffffffffffffff161415610a1057600360149054906101000a900460ff1615600360146101000a81548160ff0219169083151502179055505b565b6000806000858560046000838152602001908152602001600020600501548111151515610a3e57600080fd5b600360149054906101000a900460ff161515610b675760046000898152602001908152602001600020945084600101548560020154141515610a7f57600080fd5b846001015493506000856001018190555060018560090160006101000a81548160ff02191690836003811115610ab157fe5b021790555060648560070154866002015402811515610acc57fe5b0492508285600201540185600a01819055508585600601819055508460030160009054906101000a900473ffffffffffffffffffffffffffffffffffffffff1673ffffffffffffffffffffffffffffffffffffffff166108fc610b3a600054876119d890919063ffffffff16565b9081150290604051600060405180830381858888f19350505050158015610b65573d6000803e3d6000fd5b505b5050505050505050565b60606000806000806000806000806000600460008c8152602001908152602001600020905080600001816001015482600201548360030160009054906101000a900473ffffffffffffffffffffffffffffffffffffffff168460050154856007015486600801548760090160009054906101000a900460ff166003811115610bf557fe5b88600a0154888054600181600116156101000203166002900480601f016020809104026020016040519081016040528092919081815260200182805460018160011615610100020316600290048015610c8f5780601f10610c6457610100808354040283529160200191610c8f565b820191906000526020600020905b815481529060010190602001808311610c7257829003601f168201915b50505050509850995099509950995099509950995099509950509193959799909294969850565b600080600083600380811115610cc857fe5b6004600083815260200190815260200160002060090160009054906101000a900460ff166003811115610cf757fe5b141515610d0357600080fd5b600360149054906101000a900460ff161515610e0557600460008681526020019081526020016000209350610d38853361191e565b9250600083111515610d4957600080fd5b600084600c01600085815260200190815260200160002060020154111515610d7057600080fd5b83600c016000848152602001908152602001600020600201549150600084600c016000858152602001908152602001600020600201819055503373ffffffffffffffffffffffffffffffffffffffff166108fc610dd8600054856119d890919063ffffffff16565b9081150290604051600060405180830381858888f19350505050158015610e03573d6000803e3d6000fd5b505b5050505050565b600080836004600082815260200190815260200160002060030160009054906101000a900473ffffffffffffffffffffffffffffffffffffffff1673ffffffffffffffffffffffffffffffffffffffff163373ffffffffffffffffffffffffffffffffffffffff16141515610e8057600080fd5b600360149054906101000a900460ff161515610f4657600460008681526020019081526020016000209250610ec060005434611a0290919063ffffffff16565b9150600083600a0154111515610ed557600080fd5b82600601548411151515610ee857600080fd5b610eff8284600a0154611a4090919063ffffffff16565b83600a0181905550600083600a01541415610f3b5760028360090160006101000a81548160ff02191690836003811115610f3557fe5b02179055505b610f458583611a61565b5b5050505050565b6060600080600060029250600191505b6001548211151561105057600190505b60046000838152602001908152602001600020600b015481111515611043573373ffffffffffffffffffffffffffffffffffffffff1660046000848152602001908152602001600020600c01600083815260200190815260200160002060000160009054906101000a900473ffffffffffffffffffffffffffffffffffffffff1673ffffffffffffffffffffffffffffffffffffffff16141561103657828290806001815401808255809150509060018203906000526020600020016000909192909190915055505b8080600101915050610f6d565b8180600101925050610f5d565b8280548060200260200160405190810160405280929190818152602001828054801561109b57602002820191906000526020600020905b815481526020019060010190808311611087575b5050505050935050505090565b600080600084600460008281526020019081526020016000206002015460046000838152602001908152602001600020600101541015156110e857600080fd5b85600060038111156110f657fe5b6004600083815260200190815260200160002060090160009054906101000a900460ff16600381111561112557fe5b14151561113157600080fd5b86866004600083815260200190815260200160002060050154811115151561115857600080fd5b600360149054906101000a900460ff1615156112f657600460008a8152602001908152602001600020965061119860005434611a0290919063ffffffff16565b9550866002015486886001015401111515156111b357600080fd5b6111bd893361191e565b94506000851115611214576111f38688600c01600088815260200190815260200160002060010154611b0790919063ffffffff16565b87600c016000878152602001908152602001600020600101819055506112d6565b86600b016000815480929190600101919050555086600b015494506060604051908101604052803373ffffffffffffffffffffffffffffffffffffffff168152602001878152602001600081525087600c01600087815260200190815260200160002060008201518160000160006101000a81548173ffffffffffffffffffffffffffffffffffffffff021916908373ffffffffffffffffffffffffffffffffffffffff16021790555060208201518160010155604082015181600201559050505b6112ed868860010154611b0790919063ffffffff16565b87600101819055505b505050505050505050565b6000806000600360149054906101000a900460ff161561148357600191505b6001548211151561142757600190505b60046000838152602001908152602001600020600b01548111151561141a573373ffffffffffffffffffffffffffffffffffffffff1660046000848152602001908152602001600020600c01600083815260200190815260200160002060000160009054906101000a900473ffffffffffffffffffffffffffffffffffffffff1673ffffffffffffffffffffffffffffffffffffffff16141561140d5761140a60046000848152602001908152602001600020600c0160008381526020019081526020016000206001015484611b0790919063ffffffff16565b92505b8080600101915050611330565b8180600101925050611320565b3373ffffffffffffffffffffffffffffffffffffffff166108fc611456600054866119d890919063ffffffff16565b9081150290604051600060405180830381858888f19350505050158015611481573d6000803e3d6000fd5b505b505050565b6000600154905090565b60008083600460008281526020019081526020016000206002015460046000838152602001908152602001600020600101541015156114d057600080fd5b600360149054906101000a900460ff1615156115885760046000868152602001908152602001600020925083836005015410151561150d57600080fd5b60038360090160006101000a81548160ff0219169083600381111561152e57fe5b0217905550600191505b82600b0154821115156115875782600c0160008381526020019081526020016000206001015483600c016000848152602001908152602001600020600201819055508180600101925050611538565b5b5050505050565b60008060008060046000868152602001908152602001600020905080600c01600087815260200190815260200160002060000160009054906101000a900473ffffffffffffffffffffffffffffffffffffffff1681600c0160008881526020019081526020016000206001015482600c01600089815260200190815260200160002060020154935093509350509250925092565b600080826004600082815260200190815260200160002060030160009054906101000a900473ffffffffffffffffffffffffffffffffffffffff1673ffffffffffffffffffffffffffffffffffffffff163373ffffffffffffffffffffffffffffffffffffffff1614151561169757600080fd5b60046000858152602001908152602001600020915081600a015492505050919050565b60606000600160008154809291906001019190505550600154905061018060405190810160405280898152602001600081526020016117046000548a611a0290919063ffffffff16565b81526020013373ffffffffffffffffffffffffffffffffffffffff1681526020018781526020018681526020018481526020018581526020018481526020016000600381111561175057fe5b8152602001600081526020016000815250600460008381526020019081526020016000206000820151816000019080519060200190611790929190611b28565b50602082015181600101556040820151816002015560608201518160030160006101000a81548173ffffffffffffffffffffffffffffffffffffffff021916908373ffffffffffffffffffffffffffffffffffffffff1602179055506080820151816004015560a0820151816005015560c0820151816006015560e0820151816007015561010082015181600801556101208201518160090160006101000a81548160ff0219169083600381111561184457fe5b021790555061014082015181600a015561016082015181600b0155905050600460008281526020019081526020016000206000018054600181600116156101000203166002900480601f01602080910402602001604051908101604052809291908181526020018280546001816001161561010002031660029004801561190c5780601f106118e15761010080835404028352916020019161190c565b820191906000526020600020905b8154815290600101906020018083116118ef57829003601f168201915b50505050509150509695505050505050565b6000806000600460008681526020019081526020016000209150600190505b81600b0154811115156119cb578373ffffffffffffffffffffffffffffffffffffffff1682600c01600083815260200190815260200160002060000160009054906101000a900473ffffffffffffffffffffffffffffffffffffffff1673ffffffffffffffffffffffffffffffffffffffff1614156119be578092506119d0565b808060010191505061193d565b600092505b505092915050565b6000806000831115156119ea57600080fd5b82848115156119f557fe5b0490508091505092915050565b6000806000841415611a175760009150611a39565b8284029050828482811515611a2857fe5b04141515611a3557600080fd5b8091505b5092915050565b600080838311151515611a5257600080fd5b82840390508091505092915050565b600080600080600460008781526020019081526020016000209350600192505b83600b015483111515611aff578360020154606485600c0160008681526020019081526020016000206001015402811515611ab857fe5b0491506064828602811515611ac957fe5b0490508084600c016000858152602001908152602001600020600201600082825401925050819055508280600101935050611a81565b505050505050565b6000808284019050838110151515611b1e57600080fd5b8091505092915050565b828054600181600116156101000203166002900490600052602060002090601f016020900481019282601f10611b6957805160ff1916838001178555611b97565b82800160010185558215611b97579182015b82811115611b96578251825591602001919060010190611b7b565b5b509050611ba49190611ba8565b5090565b611bca91905b80821115611bc6576000816000905550600101611bae565b5090565b905600a165627a7a72305820dc0d1c1f35ebc3dad550a7e4e4e795a294cf34559b8c5badb7a5c63c528ce42f0029",
  "source": "pragma solidity ^0.4.17;\nimport \"./SafeMath.sol\";\n\ncontract CrowdfundingFactory {\n    using SafeMath for uint256;\n\n    uint256 multiplier = 10**2;\n    uint256 public numCampaigns;\n    uint256[] investorCampaigns;\n    address private owner;\n    bool private stopped = false;\n    mapping(uint256 => Campaign) public campaigns;\n    \n    enum Status { \n        Active, \n        Refunding,\n        Terminated, \n        Failed\n    }\n\n    struct Investor{\n        address addr;\n        uint256 amount;\n        uint256 balance;\n    }\n\n    struct Campaign{\n        string name;\n        uint256 amount;\n        uint256 goal;\n        address beneficiary;\n        uint256 startDate;\n        uint256 endDate;\n        uint256 refundDeadline;\n        uint256 rate;\n        uint256 term;\n        Status status;\n        uint256 debt;\n        uint256 numInvestors;\n        mapping(uint => Investor) investors;\n    }\n\n    modifier isOwner() { if(msg.sender == owner) _; }\n    modifier stopInEmergency { if (!stopped) _; }\n    modifier onlyInEmergency { if (stopped) _; }\n    \n    modifier active(uint256 _campaignID){\n        require(campaigns[_campaignID].status == Status.Active);\n        _;\n    }\n    modifier failed(uint256 _campaignID){\n        require(campaigns[_campaignID].status == Status.Failed);\n        _;\n    }\n    modifier activeValidDate(uint256 _campaignID, uint256 _todayDate){\n        require(_todayDate <= campaigns[_campaignID].endDate);\n        _;\n    }\n    modifier validAmount(uint256 _campaignID){\n        require(campaigns[_campaignID].amount < campaigns[_campaignID].goal);\n        _;\n    }\n    modifier isBeneficiary(uint256 _campaignID){\n        require(msg.sender == campaigns[_campaignID].beneficiary);\n        _;\n    }\n\n    constructor(){\n        owner = msg.sender;\n    }\n\n    function toggleEmergency() isOwner public{\n        stopped = !stopped;\n    }\n\n    function createCampaign(string name, uint256 goal, uint256 startDate, uint256 endDate, uint256 rate, uint256 term) public returns(string){\n        numCampaigns++;\n        uint256 campaignID = numCampaigns;\n        campaigns[campaignID] = Campaign(name, 0, goal.mul(multiplier), msg.sender, startDate, endDate, term, rate, term, Status.Active, 0, 0);\n        return campaigns[campaignID].name;\n    }\n\n    function getCampaigns() public view returns(uint256){\n        return numCampaigns;\n    }\n\n    function getCampaign(uint256 campaignID) public view returns(string, uint256, uint256, address, uint256, uint256, uint256, uint, uint){\n        Campaign storage campaign = campaigns[campaignID];\n        return (campaign.name, campaign.amount, campaign.goal, campaign.beneficiary, campaign.endDate, campaign.rate, campaign.term, uint(campaign.status), campaign.debt);\n    }\n\n    function contribute(uint256 campaignID, uint256 todayDate) validAmount(campaignID) active(campaignID) activeValidDate(campaignID, todayDate) stopInEmergency public payable{\n        Campaign storage campaign = campaigns[campaignID];\n        uint value = msg.value.mul(multiplier);\n        require(campaign.amount + value <= campaign.goal);\n        uint256 investorID = getInvestorID(campaignID, msg.sender);\n        if(investorID > 0){\n            campaign.investors[investorID].amount = campaign.investors[investorID].amount.add(value);\n        } else{\n            campaign.numInvestors++;\n            investorID = campaign.numInvestors;\n            campaign.investors[investorID] = Investor(msg.sender, value, 0);\n        }\n        campaign.amount = campaign.amount.add(value);\n    }\n\n    function getDebt(uint256 campaignID) isBeneficiary(campaignID) public view returns(uint256){\n        Campaign storage campaign = campaigns[campaignID];\n        return campaign.debt;\n    }\n\n    function getInvestorID(uint256 campaignID, address investorAddr) public view returns(uint256){\n        Campaign storage campaign = campaigns[campaignID];\n        for (uint256 i = 1; i <= campaign.numInvestors; i ++) {\n            if(campaign.investors[i].addr == investorAddr){\n                return i;\n            }\n        }\n        return 0;\n    }\n\n    function getInvestorInCampaign(uint256 investorID, uint256 campaignID) public view returns(address, uint256, uint256){\n        Campaign storage campaign = campaigns[campaignID];\n        return (campaign.investors[investorID].addr, campaign.investors[investorID].amount, campaign.investors[investorID].balance);\n    }\n\n    function goalReached(uint256 campaignID, uint256 todayDate, uint256 refundDeadline) activeValidDate(campaignID, todayDate) stopInEmergency public payable {\n        Campaign storage campaign = campaigns[campaignID];\n        require(campaign.goal == campaign.amount);\n        uint256 amount = campaign.amount;\n        campaign.amount = 0;\n        campaign.status = Status.Refunding;\n        uint256 percentage = (campaign.goal*campaign.rate) / 100;\n        campaign.debt = campaign.goal + percentage;\n        campaign.refundDeadline = refundDeadline;\n        campaign.beneficiary.transfer(amount.div(multiplier));\n    }\n\n    function failCampaign(uint256 campaignID, uint256 todayDate) validAmount(campaignID) stopInEmergency public {\n        Campaign storage campaign = campaigns[campaignID];\n        require(campaign.endDate < todayDate);\n        campaign.status = Status.Failed;\n        for (uint256 i = 1; i <= campaign.numInvestors; i ++) {\n            campaign.investors[i].balance = campaign.investors[i].amount;\n        }\n    }\n\n    function claimRefund(uint256 campaignID) failed(campaignID) stopInEmergency public payable {\n        Campaign storage campaign = campaigns[campaignID];\n        uint256 investorID = getInvestorID(campaignID, msg.sender);\n        require(investorID > 0);\n        require(campaign.investors[investorID].balance > 0);\n        uint256 refund = campaign.investors[investorID].balance;\n        campaign.investors[investorID].balance = 0;\n        msg.sender.transfer(refund.div(multiplier));\n    }\n\n    function payDebt(uint256 campaignID, uint256 todayDate) isBeneficiary(campaignID) stopInEmergency public payable {\n        Campaign storage campaign = campaigns[campaignID];\n        uint256 value = msg.value.mul(multiplier);\n        require(campaign.debt > 0);\n        require(todayDate <= campaign.refundDeadline);\n        campaign.debt = campaign.debt.sub(value);\n        if(campaign.debt == 0){\n            campaign.status = Status.Terminated;\n        }\n        releaseHolderShares(campaignID, value);\n    }\n\n    function releaseHolderShares(uint256 campaignID, uint depositAmount) private {\n        Campaign storage campaign = campaigns[campaignID];\n        for (uint256 i = 1; i <= campaign.numInvestors; i ++) {\n            uint256 percentage = (campaign.investors[i].amount * 100) / campaign.goal;\n            uint256 holderShare = (depositAmount * percentage) / 100;\n            campaign.investors[i].balance += holderShare;\n        }\n    }\n\n    function claimShare(uint256 campaignID) stopInEmergency public payable {\n        Campaign storage campaign = campaigns[campaignID];\n        uint256 investorID = getInvestorID(campaignID, msg.sender);\n        require(investorID > 0);\n        require(campaign.investors[investorID].balance > 0);\n        uint256 refund = campaign.investors[investorID].balance;\n        campaign.investors[investorID].balance = 0;\n        msg.sender.transfer(refund.div(multiplier));\n    }\n\n    function getInvestorCampaigns() public returns(uint[]){\n        uint256[] storage investorCampaignsInside = investorCampaigns;\n        for (uint256 i = 1; i <= numCampaigns; i++) {\n            for (uint256 j = 1; j <= campaigns[i].numInvestors; j++) {\n                if(campaigns[i].investors[j].addr == msg.sender){\n                    investorCampaignsInside.push(i);\n                }\n            }\n        }\n        return investorCampaignsInside;\n    }\n\n    function withdrawEmergencyMoney() onlyInEmergency public{\n        uint256 refund;\n        for (uint256 i = 1; i <= numCampaigns; i++) {\n            for (uint256 j = 1; j <= campaigns[i].numInvestors; j++) {\n                if(campaigns[i].investors[j].addr == msg.sender){\n                    refund = refund.add(campaigns[i].investors[j].amount);\n                }\n            }\n        }\n        msg.sender.transfer(refund.div(multiplier));\n    }\n}",
  "sourcePath": "/Users/AndyPunk/Documents/Consensys/final_project/contracts/CrowdfundingFactory.sol",
  "compiler": {
    "name": "solc",
    "version": "0.4.24+commit.e67f0147.Emscripten.clang"
  },
  "schemaVersion": "2.0.1",
  "updatedAt": "2018-08-22T22:32:47.391Z"
}