{
  "contractName": "CrowdfundingFactory",
  "abi": [
    {
      "constant": true,
      "inputs": [
        {
          "name": "",
          "type": "uint256"
        }
      ],
      "name": "campaigns",
      "outputs": [
        {
          "name": "name",
          "type": "string"
        },
        {
          "name": "imageUrl",
          "type": "string"
        },
        {
          "name": "amount",
          "type": "uint256"
        },
        {
          "name": "goal",
          "type": "uint256"
        },
        {
          "name": "beneficiary",
          "type": "address"
        },
        {
          "name": "endDate",
          "type": "uint256"
        },
        {
          "name": "refundDeadline",
          "type": "uint256"
        },
        {
          "name": "rate",
          "type": "uint256"
        },
        {
          "name": "term",
          "type": "uint256"
        },
        {
          "name": "status",
          "type": "uint8"
        },
        {
          "name": "debt",
          "type": "uint256"
        },
        {
          "name": "numInvestors",
          "type": "uint256"
        }
      ],
      "payable": false,
      "stateMutability": "view",
      "type": "function"
    },
    {
      "constant": true,
      "inputs": [],
      "name": "numCampaigns",
      "outputs": [
        {
          "name": "",
          "type": "uint256"
        }
      ],
      "payable": false,
      "stateMutability": "view",
      "type": "function"
    },
    {
      "constant": true,
      "inputs": [],
      "name": "owner",
      "outputs": [
        {
          "name": "",
          "type": "address"
        }
      ],
      "payable": false,
      "stateMutability": "view",
      "type": "function"
    },
    {
      "inputs": [],
      "payable": false,
      "stateMutability": "nonpayable",
      "type": "constructor"
    },
    {
      "anonymous": false,
      "inputs": [
        {
          "indexed": false,
          "name": "_stopped",
          "type": "bool"
        }
      ],
      "name": "changeStopped",
      "type": "event"
    },
    {
      "constant": false,
      "inputs": [],
      "name": "toggleEmergency",
      "outputs": [],
      "payable": false,
      "stateMutability": "nonpayable",
      "type": "function"
    },
    {
      "constant": false,
      "inputs": [
        {
          "name": "name",
          "type": "string"
        },
        {
          "name": "imageUrl",
          "type": "string"
        },
        {
          "name": "goal",
          "type": "uint256"
        },
        {
          "name": "endDate",
          "type": "uint256"
        },
        {
          "name": "rate",
          "type": "uint256"
        },
        {
          "name": "term",
          "type": "uint256"
        }
      ],
      "name": "createCampaign",
      "outputs": [],
      "payable": false,
      "stateMutability": "nonpayable",
      "type": "function"
    },
    {
      "constant": false,
      "inputs": [
        {
          "name": "campaignID",
          "type": "uint256"
        }
      ],
      "name": "contribute",
      "outputs": [],
      "payable": true,
      "stateMutability": "payable",
      "type": "function"
    },
    {
      "constant": true,
      "inputs": [
        {
          "name": "campaignID",
          "type": "uint256"
        }
      ],
      "name": "getInvestorID",
      "outputs": [
        {
          "name": "",
          "type": "uint256"
        }
      ],
      "payable": false,
      "stateMutability": "view",
      "type": "function"
    },
    {
      "constant": true,
      "inputs": [
        {
          "name": "investorID",
          "type": "uint256"
        },
        {
          "name": "campaignID",
          "type": "uint256"
        }
      ],
      "name": "getInvestorInCampaign",
      "outputs": [
        {
          "name": "",
          "type": "address"
        },
        {
          "name": "",
          "type": "uint256"
        },
        {
          "name": "",
          "type": "uint256"
        }
      ],
      "payable": false,
      "stateMutability": "view",
      "type": "function"
    },
    {
      "constant": false,
      "inputs": [
        {
          "name": "campaignID",
          "type": "uint256"
        }
      ],
      "name": "goalReached",
      "outputs": [],
      "payable": true,
      "stateMutability": "payable",
      "type": "function"
    },
    {
      "constant": false,
      "inputs": [
        {
          "name": "campaignID",
          "type": "uint256"
        }
      ],
      "name": "failCampaign",
      "outputs": [],
      "payable": false,
      "stateMutability": "nonpayable",
      "type": "function"
    },
    {
      "constant": false,
      "inputs": [
        {
          "name": "campaignID",
          "type": "uint256"
        }
      ],
      "name": "claimRefund",
      "outputs": [],
      "payable": true,
      "stateMutability": "payable",
      "type": "function"
    },
    {
      "constant": false,
      "inputs": [
        {
          "name": "campaignID",
          "type": "uint256"
        }
      ],
      "name": "payDebt",
      "outputs": [],
      "payable": true,
      "stateMutability": "payable",
      "type": "function"
    },
    {
      "constant": false,
      "inputs": [
        {
          "name": "campaignID",
          "type": "uint256"
        }
      ],
      "name": "claimShare",
      "outputs": [],
      "payable": true,
      "stateMutability": "payable",
      "type": "function"
    },
    {
      "constant": false,
      "inputs": [],
      "name": "withdrawEmergencyMoney",
      "outputs": [],
      "payable": false,
      "stateMutability": "nonpayable",
      "type": "function"
    }
  ],
  "bytecode": "0x608060405260646000556000600260146101000a81548160ff02191690831515021790555062278d0060045534801561003757600080fd5b5033600260006101000a81548173ffffffffffffffffffffffffffffffffffffffff021916908373ffffffffffffffffffffffffffffffffffffffff160217905550611818806100886000396000f3006080604052600436106100d0576000357c0100000000000000000000000000000000000000000000000000000000900463ffffffff168063084285a9146100d55780630cc03e7a14610102578063141961bc1461012257806316fc3297146102b45780632897c24a146102d45780632c0f7b6f146103ab5780632d1d2744146103d65780635b7baf64146103ed578063729c521c1461040d5780638da5cb5b1461042d5780639e99f45914610484578063c1cbbca71461049b578063c218b1be146104bb578063d44fb79614610540575b600080fd5b3480156100e157600080fd5b5061010060048036038101908080359060200190929190505050610581565b005b61012060048036038101908080359060200190929190505050610682565b005b34801561012e57600080fd5b5061014d60048036038101908080359060200190929190505050610793565b6040518080602001806020018d81526020018c81526020018b73ffffffffffffffffffffffffffffffffffffffff1673ffffffffffffffffffffffffffffffffffffffff1681526020018a81526020018981526020018881526020018781526020018660038111156101bb57fe5b60ff16815260200185815260200184815260200183810383528f818151815260200191508051906020019080838360005b838110156102075780820151818401526020810190506101ec565b50505050905090810190601f1680156102345780820380516001836020036101000a031916815260200191505b5083810382528e818151815260200191508051906020019080838360005b8381101561026d578082015181840152602081019050610252565b50505050905090810190601f16801561029a5780820380516001836020036101000a031916815260200191505b509e50505050505050505050505050505060405180910390f35b6102d260048036038101908080359060200190929190505050610950565b005b3480156102e057600080fd5b506103a9600480360381019080803590602001908201803590602001908080601f0160208091040260200160405190810160405280939291908181526020018383808284378201915050505050509192919290803590602001908201803590602001908080601f016020809104026020016040519081016040528093929190818152602001838380828437820191505050505050919291929080359060200190929190803590602001909291908035906020019092919080359060200190929190505050610a95565b005b3480156103b757600080fd5b506103c0610c7a565b6040518082815260200191505060405180910390f35b3480156103e257600080fd5b506103eb610c80565b005b61040b60048036038101908080359060200190929190505050610cf9565b005b61042b60048036038101908080359060200190929190505050610e53565b005b34801561043957600080fd5b50610442611054565b604051808273ffffffffffffffffffffffffffffffffffffffff1673ffffffffffffffffffffffffffffffffffffffff16815260200191505060405180910390f35b34801561049057600080fd5b5061049961107a565b005b6104b960048036038101908080359060200190929190505050611206565b005b3480156104c757600080fd5b506104f060048036038101908080359060200190929190803590602001909291905050506114aa565b604051808473ffffffffffffffffffffffffffffffffffffffff1673ffffffffffffffffffffffffffffffffffffffff168152602001838152602001828152602001935050505060405180910390f35b34801561054c57600080fd5b5061056b6004803603810190808035906020019092919050505061153e565b6040518082815260200191505060405180910390f35b60008082600360008281526020019081526020016000206003015460036000838152602001908152602001600020600201541015156105bf57600080fd5b600260149054906101000a900460ff161515156105db57600080fd5b60036000858152602001908152602001600020925042836005015410151561060257600080fd5b60038360090160006101000a81548160ff0219169083600381111561062357fe5b0217905550600191505b82600b01548211151561067c5782600c0160008381526020019081526020016000206001015483600c01600084815260200190815260200160002060020181905550818060010192505061062d565b50505050565b6000806000600260149054906101000a900460ff161515156106a357600080fd5b6003600085815260200190815260200160002092506106c18461153e565b91506000821115156106d257600080fd5b600083600c016000848152602001908152602001600020600201541115156106f957600080fd5b82600c016000838152602001908152602001600020600201549050600083600c016000848152602001908152602001600020600201819055503373ffffffffffffffffffffffffffffffffffffffff166108fc610761600054846115f790919063ffffffff16565b9081150290604051600060405180830381858888f1935050505015801561078c573d6000803e3d6000fd5b5050505050565b6003602052806000526040600020600091509050806000018054600181600116156101000203166002900480601f01602080910402602001604051908101604052809291908181526020018280546001816001161561010002031660029004801561083f5780601f106108145761010080835404028352916020019161083f565b820191906000526020600020905b81548152906001019060200180831161082257829003601f168201915b505050505090806001018054600181600116156101000203166002900480601f0160208091040260200160405190810160405280929190818152602001828054600181600116156101000203166002900480156108dd5780601f106108b2576101008083540402835291602001916108dd565b820191906000526020600020905b8154815290600101906020018083116108c057829003601f168201915b5050505050908060020154908060030154908060040160009054906101000a900473ffffffffffffffffffffffffffffffffffffffff16908060050154908060060154908060070154908060080154908060090160009054906101000a900460ff169080600a01549080600b015490508c565b600080826003600082815260200190815260200160002060040160009054906101000a900473ffffffffffffffffffffffffffffffffffffffff1673ffffffffffffffffffffffffffffffffffffffff163373ffffffffffffffffffffffffffffffffffffffff161415156109c457600080fd5b600260149054906101000a900460ff161515156109e057600080fd5b600360008581526020019081526020016000209250610a0a6000543461162190919063ffffffff16565b9150600083600a0154111515610a1f57600080fd5b82600601544211151515610a3257600080fd5b610a498284600a015461165f90919063ffffffff16565b83600a0181905550600083600a01541415610a855760028360090160006101000a81548160ff02191690836003811115610a7f57fe5b02179055505b610a8f8483611680565b50505050565b6000610aac6103e8856115f790919063ffffffff16565b42101515610ab957600080fd5b60016000815480929190600101919050555060015490506101806040519081016040528088815260200187815260200160008152602001610b056000548861162190919063ffffffff16565b81526020013373ffffffffffffffffffffffffffffffffffffffff1681526020018581526020016000815260200184815260200183815260200160006003811115610b4c57fe5b8152602001600081526020016000815250600360008381526020019081526020016000206000820151816000019080519060200190610b8c929190611747565b506020820151816001019080519060200190610ba9929190611747565b50604082015181600201556060820151816003015560808201518160040160006101000a81548173ffffffffffffffffffffffffffffffffffffffff021916908373ffffffffffffffffffffffffffffffffffffffff16021790555060a0820151816005015560c0820151816006015560e0820151816007015561010082015181600801556101208201518160090160006101000a81548160ff02191690836003811115610c5357fe5b021790555061014082015181600a015561016082015181600b015590505050505050505050565b60015481565b600260009054906101000a900473ffffffffffffffffffffffffffffffffffffffff1673ffffffffffffffffffffffffffffffffffffffff163373ffffffffffffffffffffffffffffffffffffffff16141515610cdc57600080fd5b6001600260146101000a81548160ff021916908315150217905550565b600080600083600380811115610d0b57fe5b6003600083815260200190815260200160002060090160009054906101000a900460ff166003811115610d3a57fe5b141515610d4657600080fd5b600260149054906101000a900460ff16151515610d6257600080fd5b600360008681526020019081526020016000209350610d808561153e565b9250600083111515610d9157600080fd5b600084600c01600085815260200190815260200160002060020154111515610db857600080fd5b83600c016000848152602001908152602001600020600201549150600084600c016000858152602001908152602001600020600201819055503373ffffffffffffffffffffffffffffffffffffffff166108fc610e20600054856115f790919063ffffffff16565b9081150290604051600060405180830381858888f19350505050158015610e4b573d6000803e3d6000fd5b505050505050565b6000806000808460036000828152602001908152602001600020600501544211151515610e7f57600080fd5b856003600082815260200190815260200160002060040160009054906101000a900473ffffffffffffffffffffffffffffffffffffffff1673ffffffffffffffffffffffffffffffffffffffff163373ffffffffffffffffffffffffffffffffffffffff16141515610ef057600080fd5b600260149054906101000a900460ff16151515610f0c57600080fd5b60036000888152602001908152602001600020955085600201548660030154141515610f3757600080fd5b856002015494506000866002018190555060018660090160006101000a81548160ff02191690836003811115610f6957fe5b021790555060648660070154876003015402811515610f8457fe5b0493508386600301540186600a0181905550610faf866008015460045461162190919063ffffffff16565b9250610fc4428461172690919063ffffffff16565b86600601819055508560040160009054906101000a900473ffffffffffffffffffffffffffffffffffffffff1673ffffffffffffffffffffffffffffffffffffffff166108fc61101f600054886115f790919063ffffffff16565b9081150290604051600060405180830381858888f1935050505015801561104a573d6000803e3d6000fd5b5050505050505050565b600260009054906101000a900473ffffffffffffffffffffffffffffffffffffffff1681565b6000806000600260149054906101000a900460ff16151561109a57600080fd5b600191505b600154821115156111a657600190505b60036000838152602001908152602001600020600b015481111515611199573373ffffffffffffffffffffffffffffffffffffffff1660036000848152602001908152602001600020600c01600083815260200190815260200160002060000160009054906101000a900473ffffffffffffffffffffffffffffffffffffffff1673ffffffffffffffffffffffffffffffffffffffff16141561118c5761118960036000848152602001908152602001600020600c016000838152602001908152602001600020600101548461172690919063ffffffff16565b92505b80806001019150506110af565b818060010192505061109f565b3373ffffffffffffffffffffffffffffffffffffffff166108fc6111d5600054866115f790919063ffffffff16565b9081150290604051600060405180830381858888f19350505050158015611200573d6000803e3d6000fd5b50505050565b6000806000836003600082815260200190815260200160002060030154600360008381526020019081526020016000206002015410151561124657600080fd5b846000600381111561125457fe5b6003600083815260200190815260200160002060090160009054906101000a900460ff16600381111561128357fe5b14151561128f57600080fd5b85600360008281526020019081526020016000206005015442111515156112b557600080fd5b600260149054906101000a900460ff161515156112d157600080fd5b7fad17c619794063ec95f6a47549ce955cc48fbf3a968c0b6f2c21fd28c54abf1a600260149054906101000a900460ff16604051808215151515815260200191505060405180910390a16003600088815260200190815260200160002095506113456000543461162190919063ffffffff16565b94508560030154858760020154011115151561136057600080fd5b6113698761153e565b935060008411156113c05761139f8587600c0160008781526020019081526020016000206001015461172690919063ffffffff16565b86600c01600086815260200190815260200160002060010181905550611482565b85600b016000815480929190600101919050555085600b015493506060604051908101604052803373ffffffffffffffffffffffffffffffffffffffff168152602001868152602001600081525086600c01600086815260200190815260200160002060008201518160000160006101000a81548173ffffffffffffffffffffffffffffffffffffffff021916908373ffffffffffffffffffffffffffffffffffffffff16021790555060208201518160010155604082015181600201559050505b61149985876002015461172690919063ffffffff16565b866002018190555050505050505050565b60008060008060036000868152602001908152602001600020905080600c01600087815260200190815260200160002060000160009054906101000a900473ffffffffffffffffffffffffffffffffffffffff1681600c0160008881526020019081526020016000206001015482600c01600089815260200190815260200160002060020154935093509350509250925092565b6000806000600360008581526020019081526020016000209150600190505b81600b0154811115156115eb573373ffffffffffffffffffffffffffffffffffffffff1682600c01600083815260200190815260200160002060000160009054906101000a900473ffffffffffffffffffffffffffffffffffffffff1673ffffffffffffffffffffffffffffffffffffffff1614156115de578092506115f0565b808060010191505061155d565b600092505b5050919050565b60008060008311151561160957600080fd5b828481151561161457fe5b0490508091505092915050565b60008060008414156116365760009150611658565b828402905082848281151561164757fe5b0414151561165457600080fd5b8091505b5092915050565b60008083831115151561167157600080fd5b82840390508091505092915050565b600080600080600360008781526020019081526020016000209350600192505b83600b01548311151561171e578360030154606485600c01600086815260200190815260200160002060010154028115156116d757fe5b04915060648286028115156116e857fe5b0490508084600c0160008581526020019081526020016000206002016000828254019250508190555082806001019350506116a0565b505050505050565b600080828401905083811015151561173d57600080fd5b8091505092915050565b828054600181600116156101000203166002900490600052602060002090601f016020900481019282601f1061178857805160ff19168380011785556117b6565b828001600101855582156117b6579182015b828111156117b557825182559160200191906001019061179a565b5b5090506117c391906117c7565b5090565b6117e991905b808211156117e55760008160009055506001016117cd565b5090565b905600a165627a7a72305820624701cfbc60bee91c24768f49aeab085977fa69906d2da3afe9c6f67b7544880029",
  "source": "pragma solidity ^0.4.17;\nimport \"./SafeMath.sol\";\n\ncontract CrowdfundingFactory {\n    using SafeMath for uint256;\n\n    uint256 multiplier = 10**2;\n    uint256 public numCampaigns;\n    // uint256[] investorCampaigns;\n    address public owner;\n    bool private stopped = false;\n    mapping(uint256 => Campaign) public campaigns;\n    uint256 monthsInSeconds = 2592000;\n    \n    enum Status { \n        Active, \n        Refunding,\n        Terminated, \n        Failed\n    }\n\n    struct Investor{\n        address addr;\n        uint256 amount;\n        uint256 balance;\n    }\n\n    struct Campaign{\n        string name;\n        string imageUrl;\n        uint256 amount;\n        uint256 goal;\n        address beneficiary;\n        uint256 endDate;\n        uint256 refundDeadline;\n        uint256 rate;\n        uint256 term;\n        Status status;\n        uint256 debt;\n        uint256 numInvestors;\n        mapping(uint => Investor) investors;\n    }\n\n    modifier isOwner() { \n        require(msg.sender == owner); \n        _; \n    }\n    modifier stopInEmergency { require (!stopped); _; }\n    modifier onlyInEmergency { require (stopped); _; }\n    \n    modifier active(uint256 _campaignID){\n        require(campaigns[_campaignID].status == Status.Active);\n        _;\n    }\n    modifier failed(uint256 _campaignID){\n        require(campaigns[_campaignID].status == Status.Failed);\n        _;\n    }\n    modifier activeValidDate(uint256 _campaignID){\n        require(block.timestamp <= campaigns[_campaignID].endDate);\n        _;\n    }\n    modifier validAmount(uint256 _campaignID){\n        require(campaigns[_campaignID].amount < campaigns[_campaignID].goal);\n        _;\n    }\n    modifier isBeneficiary(uint256 _campaignID){\n        require(msg.sender == campaigns[_campaignID].beneficiary);\n        _;\n    }\n\n    event changeStopped(bool _stopped);\n\n    constructor(){\n        owner = msg.sender;\n    }\n\n    function toggleEmergency() isOwner public{\n        stopped = true;\n    }\n\n    function createCampaign(string name, string imageUrl, uint256 goal, uint256 endDate, uint256 rate, uint256 term) public {\n        require(block.timestamp < endDate.div(1000));\n        numCampaigns++;\n        uint256 campaignID = numCampaigns;\n        campaigns[campaignID] = Campaign(name, imageUrl, 0, goal.mul(multiplier), msg.sender, endDate, 0, rate, term, Status.Active, 0, 0);\n    }\n\n    function contribute(uint256 campaignID) validAmount(campaignID) active(campaignID) activeValidDate(campaignID) stopInEmergency public payable{\n        emit changeStopped(stopped);\n        Campaign storage campaign = campaigns[campaignID];\n        uint value = msg.value.mul(multiplier);\n        require(campaign.amount + value <= campaign.goal);\n        uint256 investorID = getInvestorID(campaignID);\n        if(investorID > 0){\n            campaign.investors[investorID].amount = campaign.investors[investorID].amount.add(value);\n        } else{\n            campaign.numInvestors++;\n            investorID = campaign.numInvestors;\n            campaign.investors[investorID] = Investor(msg.sender, value, 0);\n        }\n        campaign.amount = campaign.amount.add(value);\n    }\n\n    function getInvestorID(uint256 campaignID) public view returns(uint256){\n        Campaign storage campaign = campaigns[campaignID];\n        for (uint256 i = 1; i <= campaign.numInvestors; i ++) {\n            if(campaign.investors[i].addr == msg.sender){\n                return i;\n            }\n        }\n        return 0;\n    }\n\n    function getInvestorInCampaign(uint256 investorID, uint256 campaignID) public view returns(address, uint256, uint256){\n        Campaign storage campaign = campaigns[campaignID];\n        return (campaign.investors[investorID].addr, campaign.investors[investorID].amount, campaign.investors[investorID].balance);\n    }\n\n    function goalReached(uint256 campaignID) activeValidDate(campaignID) isBeneficiary(campaignID) stopInEmergency public payable {\n        Campaign storage campaign = campaigns[campaignID];\n        require(campaign.goal == campaign.amount);\n        uint256 amount = campaign.amount;\n        campaign.amount = 0;\n        campaign.status = Status.Refunding;\n        uint256 percentage = (campaign.goal*campaign.rate) / 100;\n        campaign.debt = campaign.goal + percentage;\n        uint256 months = monthsInSeconds.mul(campaign.term);\n        campaign.refundDeadline = months.add(block.timestamp);\n        campaign.beneficiary.transfer(amount.div(multiplier));\n    }\n\n    function failCampaign(uint256 campaignID) validAmount(campaignID) stopInEmergency public {\n        Campaign storage campaign = campaigns[campaignID];\n        require(campaign.endDate < block.timestamp);\n        campaign.status = Status.Failed;\n        for (uint256 i = 1; i <= campaign.numInvestors; i ++) {\n            campaign.investors[i].balance = campaign.investors[i].amount;\n        }\n    }\n\n    function claimRefund(uint256 campaignID) failed(campaignID) stopInEmergency public payable {\n        Campaign storage campaign = campaigns[campaignID];\n        uint256 investorID = getInvestorID(campaignID);\n        require(investorID > 0);\n        require(campaign.investors[investorID].balance > 0);\n        uint256 refund = campaign.investors[investorID].balance;\n        campaign.investors[investorID].balance = 0;\n        msg.sender.transfer(refund.div(multiplier));\n    }\n\n    function payDebt(uint256 campaignID) isBeneficiary(campaignID) stopInEmergency public payable {\n        Campaign storage campaign = campaigns[campaignID];\n        uint256 value = msg.value.mul(multiplier);\n        require(campaign.debt > 0);\n        require(block.timestamp <= campaign.refundDeadline);\n        campaign.debt = campaign.debt.sub(value);\n        if(campaign.debt == 0){\n            campaign.status = Status.Terminated;\n        }\n        releaseHolderShares(campaignID, value);\n    }\n\n    function releaseHolderShares(uint256 campaignID, uint depositAmount) private {\n        Campaign storage campaign = campaigns[campaignID];\n        for (uint256 i = 1; i <= campaign.numInvestors; i ++) {\n            uint256 percentage = (campaign.investors[i].amount * 100) / campaign.goal;\n            uint256 holderShare = (depositAmount * percentage) / 100;\n            campaign.investors[i].balance += holderShare;\n        }\n    }\n\n    function claimShare(uint256 campaignID) stopInEmergency public payable {\n        Campaign storage campaign = campaigns[campaignID];\n        uint256 investorID = getInvestorID(campaignID);\n        require(investorID > 0);\n        require(campaign.investors[investorID].balance > 0);\n        uint256 refund = campaign.investors[investorID].balance;\n        campaign.investors[investorID].balance = 0;\n        msg.sender.transfer(refund.div(multiplier));\n    }\n\n    function withdrawEmergencyMoney() onlyInEmergency public{\n        uint256 refund;\n        for (uint256 i = 1; i <= numCampaigns; i++) {\n            for (uint256 j = 1; j <= campaigns[i].numInvestors; j++) {\n                if(campaigns[i].investors[j].addr == msg.sender){\n                    refund = refund.add(campaigns[i].investors[j].amount);\n                }\n            }\n        }\n        msg.sender.transfer(refund.div(multiplier));\n    }\n}",
  "sourcePath": "/Users/jon/blockchain-dev/CrowfundingFactory/contracts/CrowdfundingFactory.sol",
  "compiler": {
    "name": "solc",
    "version": "0.4.24+commit.e67f0147.Emscripten.clang"
  },
  "schemaVersion": "2.0.1",
  "updatedAt": "2018-08-25T03:53:22.699Z"
}