{
  "contractName": "CrowdfundingFactory",
  "abi": [
    {
      "constant": true,
      "inputs": [
        {
          "name": "",
          "type": "uint256"
        }
      ],
      "name": "campaigns",
      "outputs": [
        {
          "name": "name",
          "type": "string"
        },
        {
          "name": "amount",
          "type": "uint256"
        },
        {
          "name": "goal",
          "type": "uint256"
        },
        {
          "name": "beneficiary",
          "type": "address"
        },
        {
          "name": "startDate",
          "type": "uint256"
        },
        {
          "name": "endDate",
          "type": "uint256"
        },
        {
          "name": "refundDeadline",
          "type": "uint256"
        },
        {
          "name": "rate",
          "type": "uint256"
        },
        {
          "name": "term",
          "type": "uint256"
        },
        {
          "name": "status",
          "type": "uint8"
        },
        {
          "name": "debt",
          "type": "uint256"
        },
        {
          "name": "numInvestors",
          "type": "uint256"
        }
      ],
      "payable": false,
      "stateMutability": "view",
      "type": "function"
    },
    {
      "constant": true,
      "inputs": [],
      "name": "numCampaigns",
      "outputs": [
        {
          "name": "",
          "type": "uint256"
        }
      ],
      "payable": false,
      "stateMutability": "view",
      "type": "function"
    },
    {
      "constant": true,
      "inputs": [],
      "name": "secInMonths",
      "outputs": [
        {
          "name": "",
          "type": "uint256"
        }
      ],
      "payable": false,
      "stateMutability": "view",
      "type": "function"
    },
    {
      "anonymous": false,
      "inputs": [
        {
          "indexed": false,
          "name": "_percentage",
          "type": "uint256"
        }
      ],
      "name": "LogPercentage",
      "type": "event"
    },
    {
      "constant": false,
      "inputs": [
        {
          "name": "name",
          "type": "string"
        },
        {
          "name": "goal",
          "type": "uint256"
        },
        {
          "name": "startDate",
          "type": "uint256"
        },
        {
          "name": "endDate",
          "type": "uint256"
        },
        {
          "name": "rate",
          "type": "uint256"
        },
        {
          "name": "term",
          "type": "uint256"
        }
      ],
      "name": "createCampaign",
      "outputs": [
        {
          "name": "",
          "type": "string"
        }
      ],
      "payable": false,
      "stateMutability": "nonpayable",
      "type": "function"
    },
    {
      "constant": true,
      "inputs": [],
      "name": "getCampaigns",
      "outputs": [
        {
          "name": "",
          "type": "uint256"
        }
      ],
      "payable": false,
      "stateMutability": "view",
      "type": "function"
    },
    {
      "constant": true,
      "inputs": [
        {
          "name": "campaignID",
          "type": "uint256"
        }
      ],
      "name": "getCampaign",
      "outputs": [
        {
          "name": "",
          "type": "string"
        },
        {
          "name": "",
          "type": "uint256"
        },
        {
          "name": "",
          "type": "uint256"
        },
        {
          "name": "",
          "type": "address"
        },
        {
          "name": "",
          "type": "uint256"
        },
        {
          "name": "",
          "type": "uint256"
        },
        {
          "name": "",
          "type": "uint256"
        },
        {
          "name": "",
          "type": "uint256"
        },
        {
          "name": "",
          "type": "uint256"
        }
      ],
      "payable": false,
      "stateMutability": "view",
      "type": "function"
    },
    {
      "constant": false,
      "inputs": [
        {
          "name": "campaignID",
          "type": "uint256"
        },
        {
          "name": "todayDate",
          "type": "uint256"
        }
      ],
      "name": "contribute",
      "outputs": [],
      "payable": true,
      "stateMutability": "payable",
      "type": "function"
    },
    {
      "constant": true,
      "inputs": [
        {
          "name": "campaignID",
          "type": "uint256"
        }
      ],
      "name": "getDebt",
      "outputs": [
        {
          "name": "",
          "type": "uint256"
        }
      ],
      "payable": false,
      "stateMutability": "view",
      "type": "function"
    },
    {
      "constant": true,
      "inputs": [
        {
          "name": "campaignID",
          "type": "uint256"
        },
        {
          "name": "investorAddr",
          "type": "address"
        }
      ],
      "name": "getInvestorID",
      "outputs": [
        {
          "name": "",
          "type": "uint256"
        }
      ],
      "payable": false,
      "stateMutability": "view",
      "type": "function"
    },
    {
      "constant": true,
      "inputs": [
        {
          "name": "investorID",
          "type": "uint256"
        },
        {
          "name": "campaignID",
          "type": "uint256"
        }
      ],
      "name": "getInvestor",
      "outputs": [
        {
          "name": "",
          "type": "address"
        },
        {
          "name": "",
          "type": "uint256"
        },
        {
          "name": "",
          "type": "uint256"
        }
      ],
      "payable": false,
      "stateMutability": "view",
      "type": "function"
    },
    {
      "constant": false,
      "inputs": [
        {
          "name": "campaignID",
          "type": "uint256"
        },
        {
          "name": "todayDate",
          "type": "uint256"
        }
      ],
      "name": "goalReached",
      "outputs": [],
      "payable": true,
      "stateMutability": "payable",
      "type": "function"
    },
    {
      "constant": false,
      "inputs": [
        {
          "name": "campaignID",
          "type": "uint256"
        },
        {
          "name": "todayDate",
          "type": "uint256"
        }
      ],
      "name": "failCampaign",
      "outputs": [],
      "payable": false,
      "stateMutability": "nonpayable",
      "type": "function"
    },
    {
      "constant": false,
      "inputs": [
        {
          "name": "campaignID",
          "type": "uint256"
        }
      ],
      "name": "claimRefund",
      "outputs": [],
      "payable": true,
      "stateMutability": "payable",
      "type": "function"
    },
    {
      "constant": false,
      "inputs": [
        {
          "name": "campaignID",
          "type": "uint256"
        },
        {
          "name": "todayDate",
          "type": "uint256"
        }
      ],
      "name": "payDebt",
      "outputs": [],
      "payable": true,
      "stateMutability": "payable",
      "type": "function"
    },
    {
      "constant": false,
      "inputs": [
        {
          "name": "campaignID",
          "type": "uint256"
        },
        {
          "name": "depositAmount",
          "type": "uint256"
        }
      ],
      "name": "releaseHolderShares",
      "outputs": [],
      "payable": false,
      "stateMutability": "nonpayable",
      "type": "function"
    },
    {
      "constant": false,
      "inputs": [
        {
          "name": "campaignID",
          "type": "uint256"
        }
      ],
      "name": "claimShare",
      "outputs": [],
      "payable": true,
      "stateMutability": "payable",
      "type": "function"
    },
    {
      "constant": false,
      "inputs": [],
      "name": "getInvestorCampaigns",
      "outputs": [
        {
          "name": "",
          "type": "uint256[]"
        }
      ],
      "payable": false,
      "stateMutability": "nonpayable",
      "type": "function"
    }
  ],
  "bytecode": "0x6080604052630322008060005534801561001857600080fd5b506118b9806100286000396000f3006080604052600436106100f1576000357c0100000000000000000000000000000000000000000000000000000000900463ffffffff1680630cc03e7a146100f6578063141961bc146101165780632c0f7b6f146102435780635598f8cc1461026e5780635b7baf641461037857806362cc01e7146103985780636839027d146103c25780638c5909171461042e578063a6b0363314610458578063a81fa33a14610483578063adff220d146104ba578063ae99f24a146104f1578063c9dd1f3c14610576578063d2b75548146105b7578063d5a622d8146105e1578063df29ae6c146106f5578063f46516b514610720575b600080fd5b61011460048036038101908080359060200190929190505050610781565b005b34801561012257600080fd5b5061014160048036038101908080359060200190929190505050610863565b60405180806020018d81526020018c81526020018b73ffffffffffffffffffffffffffffffffffffffff1673ffffffffffffffffffffffffffffffffffffffff1681526020018a81526020018981526020018881526020018781526020018681526020018560038111156101b157fe5b60ff16815260200184815260200183815260200182810382528e818151815260200191508051906020019080838360005b838110156101fd5780820151818401526020810190506101e2565b50505050905090810190601f16801561022a5780820380516001836020036101000a031916815260200191505b509d505050505050505050505050505060405180910390f35b34801561024f57600080fd5b50610258610988565b6040518082815260200191505060405180910390f35b34801561027a57600080fd5b506102996004803603810190808035906020019092919050505061098e565b60405180806020018a81526020018981526020018873ffffffffffffffffffffffffffffffffffffffff1673ffffffffffffffffffffffffffffffffffffffff16815260200187815260200186815260200185815260200184815260200183815260200182810382528b818151815260200191508051906020019080838360005b8381101561033557808201518184015260208101905061031a565b50505050905090810190601f1680156103625780820380516001836020036101000a031916815260200191505b509a505050505050505050505060405180910390f35b61039660048036038101908080359060200190929190505050610ad3565b005b6103c06004803603810190808035906020019092919080359060200190929190505050610bea565b005b3480156103ce57600080fd5b506103d7610ce7565b6040518080602001828103825283818151815260200191508051906020019060200280838360005b8381101561041a5780820151818401526020810190506103ff565b505050509050019250505060405180910390f35b6104566004803603810190808035906020019092919080359060200190929190505050610e42565b005b34801561046457600080fd5b5061046d610fe7565b6040518082815260200191505060405180910390f35b34801561048f57600080fd5b506104b86004803603810190808035906020019092919080359060200190929190505050610ff1565b005b3480156104c657600080fd5b506104ef600480360381019080803590602001909291908035906020019092919050505061109f565b005b3480156104fd57600080fd5b50610526600480360381019080803590602001909291908035906020019092919050505061115f565b604051808473ffffffffffffffffffffffffffffffffffffffff1673ffffffffffffffffffffffffffffffffffffffff168152602001838152602001828152602001935050505060405180910390f35b34801561058257600080fd5b506105a1600480360381019080803590602001909291905050506111f3565b6040518082815260200191505060405180910390f35b6105df6004803603810190808035906020019092919080359060200190929190505050611276565b005b3480156105ed57600080fd5b5061067a600480360381019080803590602001908201803590602001908080601f0160208091040260200160405190810160405280939291908181526020018383808284378201915050505050509192919290803590602001909291908035906020019092919080359060200190929190803590602001909291908035906020019092919050505061141a565b6040518080602001828103825283818151815260200191508051906020019080838360005b838110156106ba57808201518184015260208101905061069f565b50505050905090810190601f1680156106e75780820380516001836020036101000a031916815260200191505b509250505060405180910390f35b34801561070157600080fd5b5061070a61167e565b6040518082815260200191505060405180910390f35b34801561072c57600080fd5b5061076b60048036038101908080359060200190929190803573ffffffffffffffffffffffffffffffffffffffff169060200190929190505050611684565b6040518082815260200191505060405180910390f35b60008060006003600085815260200190815260200160002092506107a58433611684565b91506000821115156107b657600080fd5b600083600c016000848152602001908152602001600020600201541115156107dd57600080fd5b82600c016000838152602001908152602001600020600201549050600083600c016000848152602001908152602001600020600201819055503373ffffffffffffffffffffffffffffffffffffffff166108fc829081150290604051600060405180830381858888f1935050505015801561085c573d6000803e3d6000fd5b5050505050565b6003602052806000526040600020600091509050806000018054600181600116156101000203166002900480601f01602080910402602001604051908101604052809291908181526020018280546001816001161561010002031660029004801561090f5780601f106108e45761010080835404028352916020019161090f565b820191906000526020600020905b8154815290600101906020018083116108f257829003601f168201915b5050505050908060010154908060020154908060030160009054906101000a900473ffffffffffffffffffffffffffffffffffffffff16908060040154908060050154908060060154908060070154908060080154908060090160009054906101000a900460ff169080600a01549080600b015490508c565b60015481565b60606000806000806000806000806000600360008c8152602001908152602001600020905080600001816001015482600201548360030160009054906101000a900473ffffffffffffffffffffffffffffffffffffffff168460050154856007015486600801548760090160009054906101000a900460ff166003811115610a1257fe5b88600a0154888054600181600116156101000203166002900480601f016020809104026020016040519081016040528092919081815260200182805460018160011615610100020316600290048015610aac5780601f10610a8157610100808354040283529160200191610aac565b820191906000526020600020905b815481529060010190602001808311610a8f57829003601f168201915b50505050509850995099509950995099509950995099509950509193959799909294969850565b6000806000600360008581526020019081526020016000209250600380811115610af957fe5b8360090160009054906101000a900460ff166003811115610b1657fe5b141515610b2257600080fd5b610b2c8433611684565b9150600082111515610b3d57600080fd5b600083600c01600084815260200190815260200160002060020154111515610b6457600080fd5b82600c016000838152602001908152602001600020600201549050600083600c016000848152602001908152602001600020600201819055503373ffffffffffffffffffffffffffffffffffffffff166108fc829081150290604051600060405180830381858888f19350505050158015610be3573d6000803e3d6000fd5b5050505050565b60006003600084815260200190815260200160002090508060030160009054906101000a900473ffffffffffffffffffffffffffffffffffffffff1673ffffffffffffffffffffffffffffffffffffffff163373ffffffffffffffffffffffffffffffffffffffff16141515610c5f57600080fd5b600081600a0154111515610c7257600080fd5b80600601548211151515610c8557600080fd5b610c9c3482600a015461173e90919063ffffffff16565b81600a0181905550600081600a01541415610cd85760028160090160006101000a81548160ff02191690836003811115610cd257fe5b02179055505b610ce28334610ff1565b505050565b6060600080600060029250600191505b60015482111515610dea57600190505b60036000838152602001908152602001600020600b015481111515610ddd573373ffffffffffffffffffffffffffffffffffffffff1660036000848152602001908152602001600020600c01600083815260200190815260200160002060000160009054906101000a900473ffffffffffffffffffffffffffffffffffffffff1673ffffffffffffffffffffffffffffffffffffffff161415610dd057828290806001815401808255809150509060018203906000526020600020016000909192909190915055505b8080600101915050610d07565b8180600101925050610cf7565b82805480602002602001604051908101604052809291908181526020018280548015610e3557602002820191906000526020600020905b815481526020019060010190808311610e21575b5050505050935050505090565b600080600360008581526020019081526020016000209150600034836001015401111515610e6f57600080fd5b816005015483101515610e8157600080fd5b60006003811115610e8e57fe5b8260090160009054906101000a900460ff166003811115610eab57fe5b141515610eb757600080fd5b81600201548260010154101515610ecd57600080fd5b610ed78433611684565b90506000811115610f0d573482600c01600083815260200190815260200160002060010160008282540192505081905550610fcf565b81600b016000815480929190600101919050555081600b015490506060604051908101604052803373ffffffffffffffffffffffffffffffffffffffff168152602001348152602001600081525082600c01600083815260200190815260200160002060008201518160000160006101000a81548173ffffffffffffffffffffffffffffffffffffffff021916908373ffffffffffffffffffffffffffffffffffffffff16021790555060208201518160010155604082015181600201559050505b34826001016000828254019250508190555050505050565b6000600154905090565b600080600080600360008781526020019081526020016000209350600192505b83600b0154831115156110975761104d846002015485600c0160008681526020019081526020016000206001015461175f90919063ffffffff16565b9150611062828661178990919063ffffffff16565b90508084600c016000858152602001908152602001600020600201600082825401925050819055508280600101935050611011565b505050505050565b6000806003600085815260200190815260200160002091508282600501541015156110c957600080fd5b816002015482600101541015156110df57600080fd5b60038260090160006101000a81548160ff0219169083600381111561110057fe5b0217905550600190505b81600b0154811115156111595781600c0160008281526020019081526020016000206001015482600c01600083815260200190815260200160002060020181905550808060010191505061110a565b50505050565b60008060008060036000868152602001908152602001600020905080600c01600087815260200190815260200160002060000160009054906101000a900473ffffffffffffffffffffffffffffffffffffffff1681600c0160008881526020019081526020016000206001015482600c01600089815260200190815260200160002060020154935093509350509250925092565b6000806003600084815260200190815260200160002090508060030160009054906101000a900473ffffffffffffffffffffffffffffffffffffffff1673ffffffffffffffffffffffffffffffffffffffff163373ffffffffffffffffffffffffffffffffffffffff1614151561126957600080fd5b80600a0154915050919050565b6000806000600360008681526020019081526020016000209250826005015484111515156112a357600080fd5b82600101548360020154111515156112ba57600080fd5b826001015491506000836001018190555060018360090160006101000a81548160ff021916908360038111156112ec57fe5b021790555060646103e884600701540281151561130557fe5b0490507f3e3a752c73eafe058777b5964aa34d52081a7e0de34192d12a0a70842b70798083600701546040518082815260200191505060405180910390a17f3e3a752c73eafe058777b5964aa34d52081a7e0de34192d12a0a70842b707980816040518082815260200191505060405180910390a18083600201540183600a01819055506113a08360080154856117c790919063ffffffff16565b83600601819055508260030160009054906101000a900473ffffffffffffffffffffffffffffffffffffffff1673ffffffffffffffffffffffffffffffffffffffff166108fc839081150290604051600060405180830381858888f19350505050158015611412573d6000803e3d6000fd5b505050505050565b60606000600160008154809291906001019190505550600154905061018060405190810160405280898152602001600081526020018881526020013373ffffffffffffffffffffffffffffffffffffffff1681526020018781526020018681526020016114926000548661178990919063ffffffff16565b8152602001858152602001848152602001600060038111156114b057fe5b81526020016000815260200160008152506003600083815260200190815260200160002060008201518160000190805190602001906114f09291906117e8565b50602082015181600101556040820151816002015560608201518160030160006101000a81548173ffffffffffffffffffffffffffffffffffffffff021916908373ffffffffffffffffffffffffffffffffffffffff1602179055506080820151816004015560a0820151816005015560c0820151816006015560e0820151816007015561010082015181600801556101208201518160090160006101000a81548160ff021916908360038111156115a457fe5b021790555061014082015181600a015561016082015181600b0155905050600360008281526020019081526020016000206000018054600181600116156101000203166002900480601f01602080910402602001604051908101604052809291908181526020018280546001816001161561010002031660029004801561166c5780601f106116415761010080835404028352916020019161166c565b820191906000526020600020905b81548152906001019060200180831161164f57829003601f168201915b50505050509150509695505050505050565b60005481565b6000806000600360008681526020019081526020016000209150600190505b81600b015481111515611731578373ffffffffffffffffffffffffffffffffffffffff1682600c01600083815260200190815260200160002060000160009054906101000a900473ffffffffffffffffffffffffffffffffffffffff1673ffffffffffffffffffffffffffffffffffffffff16141561172457809250611736565b80806001019150506116a3565b600092505b505092915050565b60008083831115151561175057600080fd5b82840390508091505092915050565b60008060008311151561177157600080fd5b828481151561177c57fe5b0490508091505092915050565b600080600084141561179e57600091506117c0565b82840290508284828115156117af57fe5b041415156117bc57600080fd5b8091505b5092915050565b60008082840190508381101515156117de57600080fd5b8091505092915050565b828054600181600116156101000203166002900490600052602060002090601f016020900481019282601f1061182957805160ff1916838001178555611857565b82800160010185558215611857579182015b8281111561185657825182559160200191906001019061183b565b5b5090506118649190611868565b5090565b61188a91905b8082111561188657600081600090555060010161186e565b5090565b905600a165627a7a723058204e74cda1e9df4bc7e7de1a25be9dce8346e545284d0a6db595b66936bf8301f60029",
  "source": "pragma solidity ^0.4.17;\nimport \"./SafeMath.sol\";\n\ncontract CrowdfundingFactory {\n    using SafeMath for uint256;\n    \n    enum Status { \n        Active, \n        Refunding,\n        Terminated, \n        Failed\n    }\n\n    struct Investor{\n        address addr;\n        uint256 amount;\n        uint256 balance;\n    }\n\n    struct Campaign{\n        string name;\n        uint256 amount;\n        uint256 goal;\n        address beneficiary;\n        uint256 startDate;\n        uint256 endDate;\n        uint256 refundDeadline;\n        uint256 rate;\n        uint256 term;\n        Status status;\n        uint256 debt;\n        uint256 numInvestors;\n        mapping(uint => Investor) investors;\n    }\n\n    event LogPercentage(uint256 _percentage);\n\n    uint256 public secInMonths = 52560000;\n    uint256 public numCampaigns;\n    uint256[] investorCampaigns;\n    mapping(uint256 => Campaign) public campaigns;\n\n    function createCampaign(string name, uint256 goal, uint256 startDate, uint256 endDate, uint256 rate, uint256 term) public returns(string){\n        numCampaigns++;\n        uint256 campaignID = numCampaigns;\n        campaigns[campaignID] = Campaign(name, 0, goal, msg.sender, startDate, endDate, term.mul(secInMonths), rate, term, Status.Active, 0, 0);\n        return campaigns[campaignID].name;\n    }\n\n    function getCampaigns() public view returns(uint256){\n        return numCampaigns;\n    }\n\n    function getCampaign(uint256 campaignID) public view returns(string, uint256, uint256, address, uint256, uint256, uint256, uint, uint){\n        Campaign storage campaign = campaigns[campaignID];\n        return (campaign.name, campaign.amount, campaign.goal, campaign.beneficiary, campaign.endDate, campaign.rate, campaign.term, uint(campaign.status), campaign.debt);\n    }\n\n    function contribute(uint256 campaignID, uint256 todayDate) public payable{\n        Campaign storage campaign = campaigns[campaignID];\n        require(campaign.amount + msg.value > 0);\n        require(todayDate < campaign.endDate);\n        require(campaign.status == Status.Active);\n        require(campaign.amount < campaign.goal);\n        uint256 investorID = getInvestorID(campaignID, msg.sender);\n        if(investorID > 0){\n            campaign.investors[investorID].amount += msg.value;\n        } else{\n            campaign.numInvestors++;\n            investorID = campaign.numInvestors;\n            campaign.investors[investorID] = Investor(msg.sender, msg.value, 0);\n        }\n        campaign.amount += msg.value;\n    }\n\n    function getDebt(uint256 campaignID) public view returns(uint256){\n        Campaign storage campaign = campaigns[campaignID];\n        require(msg.sender == campaign.beneficiary);\n        return campaign.debt;\n    }\n\n    function getInvestorID(uint256 campaignID, address investorAddr) public view returns(uint256){\n        Campaign storage campaign = campaigns[campaignID];\n        for (uint256 i = 1; i <= campaign.numInvestors; i ++) {\n            if(campaign.investors[i].addr == investorAddr){\n                return i;\n            }\n        }\n        return 0;\n    }\n\n    function getInvestor(uint256 investorID, uint256 campaignID) public view returns(address, uint256, uint256){\n        Campaign storage campaign = campaigns[campaignID];\n        return (campaign.investors[investorID].addr, campaign.investors[investorID].amount, campaign.investors[investorID].balance);\n    }\n\n    function goalReached(uint256 campaignID, uint256 todayDate) public payable {\n        Campaign storage campaign = campaigns[campaignID];\n        require(todayDate <= campaign.endDate);\n        require(campaign.goal <= campaign.amount);\n        uint256 amount = campaign.amount;\n        campaign.amount = 0;\n        campaign.status = Status.Refunding;\n        uint256 percentage = (campaign.rate*10**3) / 100;\n        emit LogPercentage(campaign.rate);\n        emit LogPercentage(percentage);\n        campaign.debt = campaign.goal + percentage;\n        campaign.refundDeadline = todayDate.add(campaign.term);\n        campaign.beneficiary.transfer(amount);\n    }\n\n    function failCampaign(uint256 campaignID, uint256 todayDate) public {\n        Campaign storage campaign = campaigns[campaignID];\n        require(campaign.endDate < todayDate);\n        require(campaign.amount < campaign.goal);\n        campaign.status = Status.Failed;\n        for (uint256 i = 1; i <= campaign.numInvestors; i ++) {\n            campaign.investors[i].balance = campaign.investors[i].amount;\n        }\n    }\n\n    function claimRefund(uint256 campaignID) public payable {\n        Campaign storage campaign = campaigns[campaignID];\n        require(campaign.status == Status.Failed);\n        uint256 investorID = getInvestorID(campaignID, msg.sender);\n        require(investorID > 0);\n        require(campaign.investors[investorID].balance > 0);\n        uint256 refund = campaign.investors[investorID].balance;\n        campaign.investors[investorID].balance = 0;\n        msg.sender.transfer(refund);\n    }\n\n    function payDebt(uint256 campaignID, uint256 todayDate) public payable {\n        Campaign storage campaign = campaigns[campaignID];\n        require(msg.sender == campaign.beneficiary);\n        require(campaign.debt > 0);\n        require(todayDate <= campaign.refundDeadline);\n        campaign.debt = campaign.debt.sub(msg.value);\n        if(campaign.debt == 0){\n            campaign.status = Status.Terminated;\n        }\n        releaseHolderShares(campaignID, msg.value);\n    }\n\n    function releaseHolderShares(uint256 campaignID, uint depositAmount) public {\n        Campaign storage campaign = campaigns[campaignID];\n        for (uint256 i = 1; i <= campaign.numInvestors; i ++) {\n            uint256 percentage = campaign.investors[i].amount.div(campaign.goal);\n            uint256 holderShare = depositAmount.mul(percentage);\n            campaign.investors[i].balance += holderShare;\n        }\n    }\n\n    function claimShare(uint256 campaignID) public payable {\n        Campaign storage campaign = campaigns[campaignID];\n        uint256 investorID = getInvestorID(campaignID, msg.sender);\n        require(investorID > 0);\n        require(campaign.investors[investorID].balance > 0);\n        uint256 refund = campaign.investors[investorID].balance;\n        campaign.investors[investorID].balance = 0;\n        msg.sender.transfer(refund);\n    }\n\n    function getInvestorCampaigns() public returns(uint[]){\n        uint256[] storage investorCampaignsInside = investorCampaigns;\n        for (uint256 i = 1; i <= numCampaigns; i++) {\n            for (uint256 j = 1; j <= campaigns[i].numInvestors; j++) {\n                if(campaigns[i].investors[j].addr == msg.sender){\n                    investorCampaignsInside.push(i);\n                }\n            }\n        }\n        return investorCampaignsInside;\n    }\n\n}",
  "sourcePath": "/Users/AndyPunk/Documents/Consensys/final_project/contracts/CrowdfundingFactory.sol",
  "compiler": {
    "name": "solc",
    "version": "0.4.24+commit.e67f0147.Emscripten.clang"
  },
  "schemaVersion": "2.0.1",
  "updatedAt": "2018-08-22T14:54:59.894Z"
}