{
  "contractName": "CrowdfundingFactory",
  "abi": [
    {
      "constant": true,
      "inputs": [
        {
          "name": "",
          "type": "uint256"
        }
      ],
      "name": "campaigns",
      "outputs": [
        {
          "name": "name",
          "type": "string"
        },
        {
          "name": "amount",
          "type": "uint256"
        },
        {
          "name": "goal",
          "type": "uint256"
        },
        {
          "name": "beneficiary",
          "type": "address"
        },
        {
          "name": "startDate",
          "type": "uint256"
        },
        {
          "name": "endDate",
          "type": "uint256"
        },
        {
          "name": "refundDeadline",
          "type": "uint256"
        },
        {
          "name": "rate",
          "type": "uint256"
        },
        {
          "name": "term",
          "type": "uint256"
        },
        {
          "name": "status",
          "type": "uint8"
        },
        {
          "name": "debt",
          "type": "uint256"
        },
        {
          "name": "numInvestors",
          "type": "uint256"
        }
      ],
      "payable": false,
      "stateMutability": "view",
      "type": "function"
    },
    {
      "constant": true,
      "inputs": [],
      "name": "numCampaigns",
      "outputs": [
        {
          "name": "",
          "type": "uint256"
        }
      ],
      "payable": false,
      "stateMutability": "view",
      "type": "function"
    },
    {
      "inputs": [],
      "payable": false,
      "stateMutability": "nonpayable",
      "type": "constructor"
    },
    {
      "constant": false,
      "inputs": [],
      "name": "toggleEmergency",
      "outputs": [],
      "payable": false,
      "stateMutability": "nonpayable",
      "type": "function"
    },
    {
      "constant": false,
      "inputs": [
        {
          "name": "name",
          "type": "string"
        },
        {
          "name": "goal",
          "type": "uint256"
        },
        {
          "name": "startDate",
          "type": "uint256"
        },
        {
          "name": "endDate",
          "type": "uint256"
        },
        {
          "name": "rate",
          "type": "uint256"
        },
        {
          "name": "term",
          "type": "uint256"
        }
      ],
      "name": "createCampaign",
      "outputs": [
        {
          "name": "",
          "type": "string"
        }
      ],
      "payable": false,
      "stateMutability": "nonpayable",
      "type": "function"
    },
    {
      "constant": true,
      "inputs": [],
      "name": "getCampaigns",
      "outputs": [
        {
          "name": "",
          "type": "uint256"
        }
      ],
      "payable": false,
      "stateMutability": "view",
      "type": "function"
    },
    {
      "constant": true,
      "inputs": [
        {
          "name": "campaignID",
          "type": "uint256"
        }
      ],
      "name": "getCampaign",
      "outputs": [
        {
          "name": "",
          "type": "string"
        },
        {
          "name": "",
          "type": "uint256"
        },
        {
          "name": "",
          "type": "uint256"
        },
        {
          "name": "",
          "type": "address"
        },
        {
          "name": "",
          "type": "uint256"
        },
        {
          "name": "",
          "type": "uint256"
        },
        {
          "name": "",
          "type": "uint256"
        },
        {
          "name": "",
          "type": "uint256"
        },
        {
          "name": "",
          "type": "uint256"
        },
        {
          "name": "",
          "type": "uint256"
        }
      ],
      "payable": false,
      "stateMutability": "view",
      "type": "function"
    },
    {
      "constant": false,
      "inputs": [
        {
          "name": "campaignID",
          "type": "uint256"
        },
        {
          "name": "todayDate",
          "type": "uint256"
        }
      ],
      "name": "contribute",
      "outputs": [],
      "payable": true,
      "stateMutability": "payable",
      "type": "function"
    },
    {
      "constant": true,
      "inputs": [
        {
          "name": "campaignID",
          "type": "uint256"
        }
      ],
      "name": "getDebt",
      "outputs": [
        {
          "name": "",
          "type": "uint256"
        }
      ],
      "payable": false,
      "stateMutability": "view",
      "type": "function"
    },
    {
      "constant": true,
      "inputs": [
        {
          "name": "campaignID",
          "type": "uint256"
        },
        {
          "name": "investorAddr",
          "type": "address"
        }
      ],
      "name": "getInvestorID",
      "outputs": [
        {
          "name": "",
          "type": "uint256"
        }
      ],
      "payable": false,
      "stateMutability": "view",
      "type": "function"
    },
    {
      "constant": true,
      "inputs": [
        {
          "name": "investorID",
          "type": "uint256"
        },
        {
          "name": "campaignID",
          "type": "uint256"
        }
      ],
      "name": "getInvestorInCampaign",
      "outputs": [
        {
          "name": "",
          "type": "address"
        },
        {
          "name": "",
          "type": "uint256"
        },
        {
          "name": "",
          "type": "uint256"
        }
      ],
      "payable": false,
      "stateMutability": "view",
      "type": "function"
    },
    {
      "constant": false,
      "inputs": [
        {
          "name": "campaignID",
          "type": "uint256"
        },
        {
          "name": "todayDate",
          "type": "uint256"
        },
        {
          "name": "refundDeadline",
          "type": "uint256"
        }
      ],
      "name": "goalReached",
      "outputs": [],
      "payable": true,
      "stateMutability": "payable",
      "type": "function"
    },
    {
      "constant": false,
      "inputs": [
        {
          "name": "campaignID",
          "type": "uint256"
        },
        {
          "name": "todayDate",
          "type": "uint256"
        }
      ],
      "name": "failCampaign",
      "outputs": [],
      "payable": false,
      "stateMutability": "nonpayable",
      "type": "function"
    },
    {
      "constant": false,
      "inputs": [
        {
          "name": "campaignID",
          "type": "uint256"
        }
      ],
      "name": "claimRefund",
      "outputs": [],
      "payable": true,
      "stateMutability": "payable",
      "type": "function"
    },
    {
      "constant": false,
      "inputs": [
        {
          "name": "campaignID",
          "type": "uint256"
        },
        {
          "name": "todayDate",
          "type": "uint256"
        }
      ],
      "name": "payDebt",
      "outputs": [],
      "payable": true,
      "stateMutability": "payable",
      "type": "function"
    },
    {
      "constant": false,
      "inputs": [
        {
          "name": "campaignID",
          "type": "uint256"
        }
      ],
      "name": "claimShare",
      "outputs": [],
      "payable": true,
      "stateMutability": "payable",
      "type": "function"
    },
    {
      "constant": false,
      "inputs": [],
      "name": "getInvestorCampaigns",
      "outputs": [
        {
          "name": "",
          "type": "uint256[]"
        }
      ],
      "payable": false,
      "stateMutability": "nonpayable",
      "type": "function"
    },
    {
      "constant": false,
      "inputs": [],
      "name": "withdrawEmergencyMoney",
      "outputs": [],
      "payable": false,
      "stateMutability": "nonpayable",
      "type": "function"
    }
  ],
  "bytecode": "0x608060405260646000556000600360146101000a81548160ff02191690831515021790555034801561003057600080fd5b5033600360006101000a81548173ffffffffffffffffffffffffffffffffffffffff021916908373ffffffffffffffffffffffffffffffffffffffff160217905550611c09806100816000396000f3006080604052600436106100f1576000357c0100000000000000000000000000000000000000000000000000000000900463ffffffff1680630cc03e7a146100f6578063141961bc146101165780632c0f7b6f146102435780632d1d27441461026e57806348439e0b146102855780635598f8cc146102b95780635b7baf64146103ca57806362cc01e7146103ea5780636839027d146104145780638c590917146104805780639e99f459146104aa578063a6b03633146104c1578063adff220d146104ec578063c218b1be14610523578063c9dd1f3c146105a8578063d5a622d8146105e9578063f46516b5146106fd575b600080fd5b6101146004803603810190808035906020019092919050505061075e565b005b34801561012257600080fd5b506101416004803603810190808035906020019092919050505061086b565b60405180806020018d81526020018c81526020018b73ffffffffffffffffffffffffffffffffffffffff1673ffffffffffffffffffffffffffffffffffffffff1681526020018a81526020018981526020018881526020018781526020018681526020018560038111156101b157fe5b60ff16815260200184815260200183815260200182810382528e818151815260200191508051906020019080838360005b838110156101fd5780820151818401526020810190506101e2565b50505050905090810190601f16801561022a5780820380516001836020036101000a031916815260200191505b509d505050505050505050505050505060405180910390f35b34801561024f57600080fd5b50610258610990565b6040518082815260200191505060405180910390f35b34801561027a57600080fd5b50610283610996565b005b6102b7600480360381019080803590602001909291908035906020019092919080359060200190929190505050610a19565b005b3480156102c557600080fd5b506102e460048036038101908080359060200190929190505050610b78565b60405180806020018b81526020018a81526020018973ffffffffffffffffffffffffffffffffffffffff1673ffffffffffffffffffffffffffffffffffffffff16815260200188815260200187815260200186815260200185815260200184815260200183815260200182810382528c818151815260200191508051906020019080838360005b8381101561038657808201518184015260208101905061036b565b50505050905090810190601f1680156103b35780820380516001836020036101000a031916815260200191505b509b50505050505050505050505060405180910390f35b6103e860048036038101908080359060200190929190505050610cc5565b005b6104126004803603810190808035906020019092919080359060200190929190505050610e1b565b005b34801561042057600080fd5b50610429610f5c565b6040518080602001828103825283818151815260200191508051906020019060200280838360005b8381101561046c578082015181840152602081019050610451565b505050509050019250505060405180910390f35b6104a860048036038101908080359060200190929190803590602001909291905050506110b7565b005b3480156104b657600080fd5b506104bf611310565b005b3480156104cd57600080fd5b506104d6611497565b6040518082815260200191505060405180910390f35b3480156104f857600080fd5b5061052160048036038101908080359060200190929190803590602001909291905050506114a1565b005b34801561052f57600080fd5b50610558600480360381019080803590602001909291908035906020019092919050505061159e565b604051808473ffffffffffffffffffffffffffffffffffffffff1673ffffffffffffffffffffffffffffffffffffffff168152602001838152602001828152602001935050505060405180910390f35b3480156105b457600080fd5b506105d360048036038101908080359060200190929190505050611632565b6040518082815260200191505060405180910390f35b3480156105f557600080fd5b50610682600480360381019080803590602001908201803590602001908080601f016020809104026020016040519081016040528093929190818152602001838380828437820191505050505050919291929080359060200190929190803590602001909291908035906020019092919080359060200190929190803590602001909291905050506116c9565b6040518080602001828103825283818151815260200191508051906020019080838360005b838110156106c25780820151818401526020810190506106a7565b50505050905090810190601f1680156106ef5780820380516001836020036101000a031916815260200191505b509250505060405180910390f35b34801561070957600080fd5b5061074860048036038101908080359060200190929190803573ffffffffffffffffffffffffffffffffffffffff16906020019092919050505061192e565b6040518082815260200191505060405180910390f35b6000806000600360149054906101000a900460ff16151561086557600460008581526020019081526020016000209250610798843361192e565b91506000821115156107a957600080fd5b600083600c016000848152602001908152602001600020600201541115156107d057600080fd5b82600c016000838152602001908152602001600020600201549050600083600c016000848152602001908152602001600020600201819055503373ffffffffffffffffffffffffffffffffffffffff166108fc610838600054846119e890919063ffffffff16565b9081150290604051600060405180830381858888f19350505050158015610863573d6000803e3d6000fd5b505b50505050565b6004602052806000526040600020600091509050806000018054600181600116156101000203166002900480601f0160208091040260200160405190810160405280929190818152602001828054600181600116156101000203166002900480156109175780601f106108ec57610100808354040283529160200191610917565b820191906000526020600020905b8154815290600101906020018083116108fa57829003601f168201915b5050505050908060010154908060020154908060030160009054906101000a900473ffffffffffffffffffffffffffffffffffffffff16908060040154908060050154908060060154908060070154908060080154908060090160009054906101000a900460ff169080600a01549080600b015490508c565b60015481565b600360009054906101000a900473ffffffffffffffffffffffffffffffffffffffff1673ffffffffffffffffffffffffffffffffffffffff163373ffffffffffffffffffffffffffffffffffffffff161415610a1757600360149054906101000a900460ff1615600360146101000a81548160ff0219169083151502179055505b565b6000806000858560046000838152602001908152602001600020600501548111151515610a4557600080fd5b600360149054906101000a900460ff161515610b6e5760046000898152602001908152602001600020945084600101548560020154141515610a8657600080fd5b846001015493506000856001018190555060018560090160006101000a81548160ff02191690836003811115610ab857fe5b021790555060648560070154866002015402811515610ad357fe5b0492508285600201540185600a01819055508585600601819055508460030160009054906101000a900473ffffffffffffffffffffffffffffffffffffffff1673ffffffffffffffffffffffffffffffffffffffff166108fc610b41600054876119e890919063ffffffff16565b9081150290604051600060405180830381858888f19350505050158015610b6c573d6000803e3d6000fd5b505b5050505050505050565b6060600080600080600080600080600080600460008d8152602001908152602001600020905080600001816001015482600201548360030160009054906101000a900473ffffffffffffffffffffffffffffffffffffffff168460050154856007015486600801548760090160009054906101000a900460ff166003811115610bfd57fe5b88600a01548960060154898054600181600116156101000203166002900480601f016020809104026020016040519081016040528092919081815260200182805460018160011615610100020316600290048015610c9c5780601f10610c7157610100808354040283529160200191610c9c565b820191906000526020600020905b815481529060010190602001808311610c7f57829003601f168201915b505050505099509a509a509a509a509a509a509a509a509a509a50509193959799509193959799565b600080600083600380811115610cd757fe5b6004600083815260200190815260200160002060090160009054906101000a900460ff166003811115610d0657fe5b141515610d1257600080fd5b600360149054906101000a900460ff161515610e1457600460008681526020019081526020016000209350610d47853361192e565b9250600083111515610d5857600080fd5b600084600c01600085815260200190815260200160002060020154111515610d7f57600080fd5b83600c016000848152602001908152602001600020600201549150600084600c016000858152602001908152602001600020600201819055503373ffffffffffffffffffffffffffffffffffffffff166108fc610de7600054856119e890919063ffffffff16565b9081150290604051600060405180830381858888f19350505050158015610e12573d6000803e3d6000fd5b505b5050505050565b600080836004600082815260200190815260200160002060030160009054906101000a900473ffffffffffffffffffffffffffffffffffffffff1673ffffffffffffffffffffffffffffffffffffffff163373ffffffffffffffffffffffffffffffffffffffff16141515610e8f57600080fd5b600360149054906101000a900460ff161515610f5557600460008681526020019081526020016000209250610ecf60005434611a1290919063ffffffff16565b9150600083600a0154111515610ee457600080fd5b82600601548411151515610ef757600080fd5b610f0e8284600a0154611a5090919063ffffffff16565b83600a0181905550600083600a01541415610f4a5760028360090160006101000a81548160ff02191690836003811115610f4457fe5b02179055505b610f548583611a71565b5b5050505050565b6060600080600060029250600191505b6001548211151561105f57600190505b60046000838152602001908152602001600020600b015481111515611052573373ffffffffffffffffffffffffffffffffffffffff1660046000848152602001908152602001600020600c01600083815260200190815260200160002060000160009054906101000a900473ffffffffffffffffffffffffffffffffffffffff1673ffffffffffffffffffffffffffffffffffffffff16141561104557828290806001815401808255809150509060018203906000526020600020016000909192909190915055505b8080600101915050610f7c565b8180600101925050610f6c565b828054806020026020016040519081016040528092919081815260200182805480156110aa57602002820191906000526020600020905b815481526020019060010190808311611096575b5050505050935050505090565b600080600084600460008281526020019081526020016000206002015460046000838152602001908152602001600020600101541015156110f757600080fd5b856000600381111561110557fe5b6004600083815260200190815260200160002060090160009054906101000a900460ff16600381111561113457fe5b14151561114057600080fd5b86866004600083815260200190815260200160002060050154811115151561116757600080fd5b600360149054906101000a900460ff16151561130557600460008a815260200190815260200160002096506111a760005434611a1290919063ffffffff16565b9550866002015486886001015401111515156111c257600080fd5b6111cc893361192e565b94506000851115611223576112028688600c01600088815260200190815260200160002060010154611b1790919063ffffffff16565b87600c016000878152602001908152602001600020600101819055506112e5565b86600b016000815480929190600101919050555086600b015494506060604051908101604052803373ffffffffffffffffffffffffffffffffffffffff168152602001878152602001600081525087600c01600087815260200190815260200160002060008201518160000160006101000a81548173ffffffffffffffffffffffffffffffffffffffff021916908373ffffffffffffffffffffffffffffffffffffffff16021790555060208201518160010155604082015181600201559050505b6112fc868860010154611b1790919063ffffffff16565b87600101819055505b505050505050505050565b6000806000600360149054906101000a900460ff161561149257600191505b6001548211151561143657600190505b60046000838152602001908152602001600020600b015481111515611429573373ffffffffffffffffffffffffffffffffffffffff1660046000848152602001908152602001600020600c01600083815260200190815260200160002060000160009054906101000a900473ffffffffffffffffffffffffffffffffffffffff1673ffffffffffffffffffffffffffffffffffffffff16141561141c5761141960046000848152602001908152602001600020600c0160008381526020019081526020016000206001015484611b1790919063ffffffff16565b92505b808060010191505061133f565b818060010192505061132f565b3373ffffffffffffffffffffffffffffffffffffffff166108fc611465600054866119e890919063ffffffff16565b9081150290604051600060405180830381858888f19350505050158015611490573d6000803e3d6000fd5b505b505050565b6000600154905090565b60008083600460008281526020019081526020016000206002015460046000838152602001908152602001600020600101541015156114df57600080fd5b600360149054906101000a900460ff1615156115975760046000868152602001908152602001600020925083836005015410151561151c57600080fd5b60038360090160006101000a81548160ff0219169083600381111561153d57fe5b0217905550600191505b82600b0154821115156115965782600c0160008381526020019081526020016000206001015483600c016000848152602001908152602001600020600201819055508180600101925050611547565b5b5050505050565b60008060008060046000868152602001908152602001600020905080600c01600087815260200190815260200160002060000160009054906101000a900473ffffffffffffffffffffffffffffffffffffffff1681600c0160008881526020019081526020016000206001015482600c01600089815260200190815260200160002060020154935093509350509250925092565b600080826004600082815260200190815260200160002060030160009054906101000a900473ffffffffffffffffffffffffffffffffffffffff1673ffffffffffffffffffffffffffffffffffffffff163373ffffffffffffffffffffffffffffffffffffffff161415156116a657600080fd5b60046000858152602001908152602001600020915081600a015492505050919050565b60606000600160008154809291906001019190505550600154905061018060405190810160405280898152602001600081526020016117136000548a611a1290919063ffffffff16565b81526020013373ffffffffffffffffffffffffffffffffffffffff168152602001878152602001868152602001600081526020018581526020018481526020016000600381111561176057fe5b81526020016000815260200160008152506004600083815260200190815260200160002060008201518160000190805190602001906117a0929190611b38565b50602082015181600101556040820151816002015560608201518160030160006101000a81548173ffffffffffffffffffffffffffffffffffffffff021916908373ffffffffffffffffffffffffffffffffffffffff1602179055506080820151816004015560a0820151816005015560c0820151816006015560e0820151816007015561010082015181600801556101208201518160090160006101000a81548160ff0219169083600381111561185457fe5b021790555061014082015181600a015561016082015181600b0155905050600460008281526020019081526020016000206000018054600181600116156101000203166002900480601f01602080910402602001604051908101604052809291908181526020018280546001816001161561010002031660029004801561191c5780601f106118f15761010080835404028352916020019161191c565b820191906000526020600020905b8154815290600101906020018083116118ff57829003601f168201915b50505050509150509695505050505050565b6000806000600460008681526020019081526020016000209150600190505b81600b0154811115156119db578373ffffffffffffffffffffffffffffffffffffffff1682600c01600083815260200190815260200160002060000160009054906101000a900473ffffffffffffffffffffffffffffffffffffffff1673ffffffffffffffffffffffffffffffffffffffff1614156119ce578092506119e0565b808060010191505061194d565b600092505b505092915050565b6000806000831115156119fa57600080fd5b8284811515611a0557fe5b0490508091505092915050565b6000806000841415611a275760009150611a49565b8284029050828482811515611a3857fe5b04141515611a4557600080fd5b8091505b5092915050565b600080838311151515611a6257600080fd5b82840390508091505092915050565b600080600080600460008781526020019081526020016000209350600192505b83600b015483111515611b0f578360020154606485600c0160008681526020019081526020016000206001015402811515611ac857fe5b0491506064828602811515611ad957fe5b0490508084600c016000858152602001908152602001600020600201600082825401925050819055508280600101935050611a91565b505050505050565b6000808284019050838110151515611b2e57600080fd5b8091505092915050565b828054600181600116156101000203166002900490600052602060002090601f016020900481019282601f10611b7957805160ff1916838001178555611ba7565b82800160010185558215611ba7579182015b82811115611ba6578251825591602001919060010190611b8b565b5b509050611bb49190611bb8565b5090565b611bda91905b80821115611bd6576000816000905550600101611bbe565b5090565b905600a165627a7a72305820d292d92ecaba0affe92e79d527cb37f69664231aa2739e68796b46b7e7e10bb80029",
  "source": "pragma solidity ^0.4.17;\nimport \"./SafeMath.sol\";\n\ncontract CrowdfundingFactory {\n    using SafeMath for uint256;\n\n    uint256 multiplier = 10**2;\n    uint256 public numCampaigns;\n    uint256[] investorCampaigns;\n    address private owner;\n    bool private stopped = false;\n    mapping(uint256 => Campaign) public campaigns;\n    \n    enum Status { \n        Active, \n        Refunding,\n        Terminated, \n        Failed\n    }\n\n    struct Investor{\n        address addr;\n        uint256 amount;\n        uint256 balance;\n    }\n\n    struct Campaign{\n        string name;\n        uint256 amount;\n        uint256 goal;\n        address beneficiary;\n        uint256 startDate;\n        uint256 endDate;\n        uint256 refundDeadline;\n        uint256 rate;\n        uint256 term;\n        Status status;\n        uint256 debt;\n        uint256 numInvestors;\n        mapping(uint => Investor) investors;\n    }\n\n    modifier isOwner() { if(msg.sender == owner) _; }\n    modifier stopInEmergency { if (!stopped) _; }\n    modifier onlyInEmergency { if (stopped) _; }\n    \n    modifier active(uint256 _campaignID){\n        require(campaigns[_campaignID].status == Status.Active);\n        _;\n    }\n    modifier failed(uint256 _campaignID){\n        require(campaigns[_campaignID].status == Status.Failed);\n        _;\n    }\n    modifier activeValidDate(uint256 _campaignID, uint256 _todayDate){\n        require(_todayDate <= campaigns[_campaignID].endDate);\n        _;\n    }\n    modifier validAmount(uint256 _campaignID){\n        require(campaigns[_campaignID].amount < campaigns[_campaignID].goal);\n        _;\n    }\n    modifier isBeneficiary(uint256 _campaignID){\n        require(msg.sender == campaigns[_campaignID].beneficiary);\n        _;\n    }\n\n    constructor(){\n        owner = msg.sender;\n    }\n\n    function toggleEmergency() isOwner public{\n        stopped = !stopped;\n    }\n\n    function createCampaign(string name, uint256 goal, uint256 startDate, uint256 endDate, uint256 rate, uint256 term) public returns(string){\n        numCampaigns++;\n        uint256 campaignID = numCampaigns;\n        campaigns[campaignID] = Campaign(name, 0, goal.mul(multiplier), msg.sender, startDate, endDate, 0, rate, term, Status.Active, 0, 0);\n        return campaigns[campaignID].name;\n    }\n\n    function getCampaigns() public view returns(uint256){\n        return numCampaigns;\n    }\n\n    function getCampaign(uint256 campaignID) public view returns(string, uint256, uint256, address, uint256, uint256, uint256, uint, uint, uint){\n        Campaign storage campaign = campaigns[campaignID];\n        return (campaign.name, campaign.amount, campaign.goal, campaign.beneficiary, campaign.endDate, campaign.rate, campaign.term, uint(campaign.status), campaign.debt, campaign.refundDeadline);\n    }\n\n    function contribute(uint256 campaignID, uint256 todayDate) validAmount(campaignID) active(campaignID) activeValidDate(campaignID, todayDate) stopInEmergency public payable{\n        Campaign storage campaign = campaigns[campaignID];\n        uint value = msg.value.mul(multiplier);\n        require(campaign.amount + value <= campaign.goal);\n        uint256 investorID = getInvestorID(campaignID, msg.sender);\n        if(investorID > 0){\n            campaign.investors[investorID].amount = campaign.investors[investorID].amount.add(value);\n        } else{\n            campaign.numInvestors++;\n            investorID = campaign.numInvestors;\n            campaign.investors[investorID] = Investor(msg.sender, value, 0);\n        }\n        campaign.amount = campaign.amount.add(value);\n    }\n\n    function getDebt(uint256 campaignID) isBeneficiary(campaignID) public view returns(uint256){\n        Campaign storage campaign = campaigns[campaignID];\n        return campaign.debt;\n    }\n\n    function getInvestorID(uint256 campaignID, address investorAddr) public view returns(uint256){\n        Campaign storage campaign = campaigns[campaignID];\n        for (uint256 i = 1; i <= campaign.numInvestors; i ++) {\n            if(campaign.investors[i].addr == investorAddr){\n                return i;\n            }\n        }\n        return 0;\n    }\n\n    function getInvestorInCampaign(uint256 investorID, uint256 campaignID) public view returns(address, uint256, uint256){\n        Campaign storage campaign = campaigns[campaignID];\n        return (campaign.investors[investorID].addr, campaign.investors[investorID].amount, campaign.investors[investorID].balance);\n    }\n\n    function goalReached(uint256 campaignID, uint256 todayDate, uint256 refundDeadline) activeValidDate(campaignID, todayDate) stopInEmergency public payable {\n        Campaign storage campaign = campaigns[campaignID];\n        require(campaign.goal == campaign.amount);\n        uint256 amount = campaign.amount;\n        campaign.amount = 0;\n        campaign.status = Status.Refunding;\n        uint256 percentage = (campaign.goal*campaign.rate) / 100;\n        campaign.debt = campaign.goal + percentage;\n        campaign.refundDeadline = refundDeadline;\n        campaign.beneficiary.transfer(amount.div(multiplier));\n    }\n\n    function failCampaign(uint256 campaignID, uint256 todayDate) validAmount(campaignID) stopInEmergency public {\n        Campaign storage campaign = campaigns[campaignID];\n        require(campaign.endDate < todayDate);\n        campaign.status = Status.Failed;\n        for (uint256 i = 1; i <= campaign.numInvestors; i ++) {\n            campaign.investors[i].balance = campaign.investors[i].amount;\n        }\n    }\n\n    function claimRefund(uint256 campaignID) failed(campaignID) stopInEmergency public payable {\n        Campaign storage campaign = campaigns[campaignID];\n        uint256 investorID = getInvestorID(campaignID, msg.sender);\n        require(investorID > 0);\n        require(campaign.investors[investorID].balance > 0);\n        uint256 refund = campaign.investors[investorID].balance;\n        campaign.investors[investorID].balance = 0;\n        msg.sender.transfer(refund.div(multiplier));\n    }\n\n    function payDebt(uint256 campaignID, uint256 todayDate) isBeneficiary(campaignID) stopInEmergency public payable {\n        Campaign storage campaign = campaigns[campaignID];\n        uint256 value = msg.value.mul(multiplier);\n        require(campaign.debt > 0);\n        require(todayDate <= campaign.refundDeadline);\n        campaign.debt = campaign.debt.sub(value);\n        if(campaign.debt == 0){\n            campaign.status = Status.Terminated;\n        }\n        releaseHolderShares(campaignID, value);\n    }\n\n    function releaseHolderShares(uint256 campaignID, uint depositAmount) private {\n        Campaign storage campaign = campaigns[campaignID];\n        for (uint256 i = 1; i <= campaign.numInvestors; i ++) {\n            uint256 percentage = (campaign.investors[i].amount * 100) / campaign.goal;\n            uint256 holderShare = (depositAmount * percentage) / 100;\n            campaign.investors[i].balance += holderShare;\n        }\n    }\n\n    function claimShare(uint256 campaignID) stopInEmergency public payable {\n        Campaign storage campaign = campaigns[campaignID];\n        uint256 investorID = getInvestorID(campaignID, msg.sender);\n        require(investorID > 0);\n        require(campaign.investors[investorID].balance > 0);\n        uint256 refund = campaign.investors[investorID].balance;\n        campaign.investors[investorID].balance = 0;\n        msg.sender.transfer(refund.div(multiplier));\n    }\n\n    function getInvestorCampaigns() public returns(uint[]){\n        uint256[] storage investorCampaignsInside = investorCampaigns;\n        for (uint256 i = 1; i <= numCampaigns; i++) {\n            for (uint256 j = 1; j <= campaigns[i].numInvestors; j++) {\n                if(campaigns[i].investors[j].addr == msg.sender){\n                    investorCampaignsInside.push(i);\n                }\n            }\n        }\n        return investorCampaignsInside;\n    }\n\n    function withdrawEmergencyMoney() onlyInEmergency public{\n        uint256 refund;\n        for (uint256 i = 1; i <= numCampaigns; i++) {\n            for (uint256 j = 1; j <= campaigns[i].numInvestors; j++) {\n                if(campaigns[i].investors[j].addr == msg.sender){\n                    refund = refund.add(campaigns[i].investors[j].amount);\n                }\n            }\n        }\n        msg.sender.transfer(refund.div(multiplier));\n    }\n}",
  "sourcePath": "/Users/jon/blockchain-dev/CrowfundingFactory/contracts/CrowdfundingFactory.sol",
  "compiler": {
    "name": "solc",
    "version": "0.4.24+commit.e67f0147.Emscripten.clang"
  },
  "schemaVersion": "2.0.1",
  "updatedAt": "2018-08-24T17:07:57.521Z"
}