{
  "contractName": "CrowdfundingFactory",
  "abi": [
    {
      "constant": true,
      "inputs": [
        {
          "name": "",
          "type": "uint256"
        }
      ],
      "name": "campaigns",
      "outputs": [
        {
          "name": "name",
          "type": "string"
        },
        {
          "name": "amount",
          "type": "uint256"
        },
        {
          "name": "goal",
          "type": "uint256"
        },
        {
          "name": "beneficiary",
          "type": "address"
        },
        {
          "name": "startDate",
          "type": "uint256"
        },
        {
          "name": "endDate",
          "type": "uint256"
        },
        {
          "name": "refundDeadline",
          "type": "uint256"
        },
        {
          "name": "rate",
          "type": "uint256"
        },
        {
          "name": "term",
          "type": "uint256"
        },
        {
          "name": "status",
          "type": "uint8"
        },
        {
          "name": "debt",
          "type": "uint256"
        },
        {
          "name": "numInvestors",
          "type": "uint256"
        }
      ],
      "payable": false,
      "stateMutability": "view",
      "type": "function"
    },
    {
      "constant": true,
      "inputs": [],
      "name": "numCampaigns",
      "outputs": [
        {
          "name": "",
          "type": "uint256"
        }
      ],
      "payable": false,
      "stateMutability": "view",
      "type": "function"
    },
    {
      "constant": true,
      "inputs": [],
      "name": "secInMonths",
      "outputs": [
        {
          "name": "",
          "type": "uint256"
        }
      ],
      "payable": false,
      "stateMutability": "view",
      "type": "function"
    },
    {
      "constant": false,
      "inputs": [
        {
          "name": "name",
          "type": "string"
        },
        {
          "name": "goal",
          "type": "uint256"
        },
        {
          "name": "startDate",
          "type": "uint256"
        },
        {
          "name": "endDate",
          "type": "uint256"
        },
        {
          "name": "rate",
          "type": "uint256"
        },
        {
          "name": "term",
          "type": "uint256"
        }
      ],
      "name": "createCampaign",
      "outputs": [
        {
          "name": "",
          "type": "string"
        }
      ],
      "payable": false,
      "stateMutability": "nonpayable",
      "type": "function"
    },
    {
      "constant": true,
      "inputs": [],
      "name": "getCampaigns",
      "outputs": [
        {
          "name": "",
          "type": "uint256"
        }
      ],
      "payable": false,
      "stateMutability": "view",
      "type": "function"
    },
    {
      "constant": true,
      "inputs": [
        {
          "name": "campaignID",
          "type": "uint256"
        }
      ],
      "name": "getCampaign",
      "outputs": [
        {
          "name": "",
          "type": "string"
        },
        {
          "name": "",
          "type": "uint256"
        },
        {
          "name": "",
          "type": "uint256"
        },
        {
          "name": "",
          "type": "address"
        },
        {
          "name": "",
          "type": "uint256"
        },
        {
          "name": "",
          "type": "uint256"
        },
        {
          "name": "",
          "type": "uint256"
        },
        {
          "name": "",
          "type": "uint8"
        }
      ],
      "payable": false,
      "stateMutability": "view",
      "type": "function"
    },
    {
      "constant": true,
      "inputs": [
        {
          "name": "campaignID",
          "type": "uint256"
        }
      ],
      "name": "getDebt",
      "outputs": [
        {
          "name": "",
          "type": "uint256"
        }
      ],
      "payable": false,
      "stateMutability": "view",
      "type": "function"
    },
    {
      "constant": false,
      "inputs": [
        {
          "name": "campaignID",
          "type": "uint256"
        },
        {
          "name": "todayDate",
          "type": "uint256"
        }
      ],
      "name": "contribute",
      "outputs": [],
      "payable": true,
      "stateMutability": "payable",
      "type": "function"
    },
    {
      "constant": false,
      "inputs": [
        {
          "name": "campaignID",
          "type": "uint256"
        },
        {
          "name": "todayDate",
          "type": "uint256"
        }
      ],
      "name": "goalReached",
      "outputs": [],
      "payable": true,
      "stateMutability": "payable",
      "type": "function"
    },
    {
      "constant": false,
      "inputs": [
        {
          "name": "campaignID",
          "type": "uint256"
        },
        {
          "name": "todayDate",
          "type": "uint256"
        }
      ],
      "name": "failCampaign",
      "outputs": [],
      "payable": false,
      "stateMutability": "nonpayable",
      "type": "function"
    },
    {
      "constant": false,
      "inputs": [
        {
          "name": "campaignID",
          "type": "uint256"
        }
      ],
      "name": "claimRefund",
      "outputs": [],
      "payable": true,
      "stateMutability": "payable",
      "type": "function"
    },
    {
      "constant": false,
      "inputs": [
        {
          "name": "campaignID",
          "type": "uint256"
        },
        {
          "name": "todayDate",
          "type": "uint256"
        }
      ],
      "name": "payDebt",
      "outputs": [],
      "payable": true,
      "stateMutability": "payable",
      "type": "function"
    },
    {
      "constant": false,
      "inputs": [
        {
          "name": "campaignID",
          "type": "uint256"
        },
        {
          "name": "depositAmount",
          "type": "uint256"
        }
      ],
      "name": "releaseHolderShares",
      "outputs": [],
      "payable": false,
      "stateMutability": "nonpayable",
      "type": "function"
    },
    {
      "constant": false,
      "inputs": [
        {
          "name": "campaignID",
          "type": "uint256"
        }
      ],
      "name": "claimShare",
      "outputs": [],
      "payable": true,
      "stateMutability": "payable",
      "type": "function"
    },
    {
      "constant": true,
      "inputs": [],
      "name": "getInvestorCampaigns",
      "outputs": [
        {
          "name": "",
          "type": "uint256[]"
        }
      ],
      "payable": false,
      "stateMutability": "view",
      "type": "function"
    }
  ],
  "bytecode": "0x6080604052630322008060005534801561001857600080fd5b50611684806100286000396000f3006080604052600436106100db576000357c0100000000000000000000000000000000000000000000000000000000900463ffffffff1680630cc03e7a146100e0578063141961bc146101005780632c0f7b6f1461022d5780635598f8cc146102585780635b7baf641461036957806362cc01e7146103895780636839027d146103b35780638c5909171461041f578063a6b0363314610449578063a81fa33a14610474578063adff220d146104ab578063c9dd1f3c146104e2578063d2b7554814610523578063d5a622d81461054d578063df29ae6c14610661575b600080fd5b6100fe6004803603810190808035906020019092919050505061068c565b005b34801561010c57600080fd5b5061012b6004803603810190808035906020019092919050505061076e565b60405180806020018d81526020018c81526020018b73ffffffffffffffffffffffffffffffffffffffff1673ffffffffffffffffffffffffffffffffffffffff1681526020018a815260200189815260200188815260200187815260200186815260200185600381111561019b57fe5b60ff16815260200184815260200183815260200182810382528e818151815260200191508051906020019080838360005b838110156101e75780820151818401526020810190506101cc565b50505050905090810190601f1680156102145780820380516001836020036101000a031916815260200191505b509d505050505050505050505050505060405180910390f35b34801561023957600080fd5b50610242610893565b6040518082815260200191505060405180910390f35b34801561026457600080fd5b5061028360048036038101908080359060200190929190505050610899565b60405180806020018981526020018881526020018773ffffffffffffffffffffffffffffffffffffffff1673ffffffffffffffffffffffffffffffffffffffff1681526020018681526020018581526020018481526020018360038111156102e757fe5b60ff16815260200182810382528a818151815260200191508051906020019080838360005b8381101561032757808201518184015260208101905061030c565b50505050905090810190601f1680156103545780820380516001836020036101000a031916815260200191505b50995050505050505050505060405180910390f35b610387600480360381019080803590602001909291905050506109c8565b005b6103b16004803603810190808035906020019092919080359060200190929190505050610adf565b005b3480156103bf57600080fd5b506103c8610bdc565b6040518080602001828103825283818151815260200191508051906020019060200280838360005b8381101561040b5780820151818401526020810190506103f0565b505050509050019250505060405180910390f35b6104476004803603810190808035906020019092919080359060200190929190505050610d37565b005b34801561045557600080fd5b5061045e610ed6565b6040518082815260200191505060405180910390f35b34801561048057600080fd5b506104a96004803603810190808035906020019092919080359060200190929190505050610ee0565b005b3480156104b757600080fd5b506104e06004803603810190808035906020019092919080359060200190929190505050610f8e565b005b3480156104ee57600080fd5b5061050d6004803603810190808035906020019092919050505061104e565b6040518082815260200191505060405180910390f35b61054b60048036038101908080359060200190929190803590602001909291905050506110d1565b005b34801561055957600080fd5b506105e6600480360381019080803590602001908201803590602001908080601f016020809104026020016040519081016040528093929190818152602001838380828437820191505050505050919291929080359060200190929190803590602001909291908035906020019092919080359060200190929190803590602001909291905050506111e9565b6040518080602001828103825283818151815260200191508051906020019080838360005b8381101561062657808201518184015260208101905061060b565b50505050905090810190601f1680156106535780820380516001836020036101000a031916815260200191505b509250505060405180910390f35b34801561066d57600080fd5b50610676611449565b6040518082815260200191505060405180910390f35b60008060006003600085815260200190815260200160002092506106b0843361144f565b91506000821115156106c157600080fd5b600083600c016000848152602001908152602001600020600201541115156106e857600080fd5b82600c016000838152602001908152602001600020600201549050600083600c016000848152602001908152602001600020600201819055503373ffffffffffffffffffffffffffffffffffffffff166108fc829081150290604051600060405180830381858888f19350505050158015610767573d6000803e3d6000fd5b5050505050565b6003602052806000526040600020600091509050806000018054600181600116156101000203166002900480601f01602080910402602001604051908101604052809291908181526020018280546001816001161561010002031660029004801561081a5780601f106107ef5761010080835404028352916020019161081a565b820191906000526020600020905b8154815290600101906020018083116107fd57829003601f168201915b5050505050908060010154908060020154908060030160009054906101000a900473ffffffffffffffffffffffffffffffffffffffff16908060040154908060050154908060060154908060070154908060080154908060090160009054906101000a900460ff169080600a01549080600b015490508c565b60015481565b6060600080600080600080600080600360008b8152602001908152602001600020905080600001816001015482600201548360030160009054906101000a900473ffffffffffffffffffffffffffffffffffffffff168460050154856007015486600801548760090160009054906101000a900460ff16878054600181600116156101000203166002900480601f0160208091040260200160405190810160405280929190818152602001828054600181600116156101000203166002900480156109a55780601f1061097a576101008083540402835291602001916109a5565b820191906000526020600020905b81548152906001019060200180831161098857829003601f168201915b505050505097509850985098509850985098509850985050919395975091939597565b60008060006003600085815260200190815260200160002092506003808111156109ee57fe5b8360090160009054906101000a900460ff166003811115610a0b57fe5b141515610a1757600080fd5b610a21843361144f565b9150600082111515610a3257600080fd5b600083600c01600084815260200190815260200160002060020154111515610a5957600080fd5b82600c016000838152602001908152602001600020600201549050600083600c016000848152602001908152602001600020600201819055503373ffffffffffffffffffffffffffffffffffffffff166108fc829081150290604051600060405180830381858888f19350505050158015610ad8573d6000803e3d6000fd5b5050505050565b60006003600084815260200190815260200160002090508060030160009054906101000a900473ffffffffffffffffffffffffffffffffffffffff1673ffffffffffffffffffffffffffffffffffffffff163373ffffffffffffffffffffffffffffffffffffffff16141515610b5457600080fd5b600081600a0154111515610b6757600080fd5b80600601548211151515610b7a57600080fd5b610b913482600a015461150990919063ffffffff16565b81600a0181905550600081600a01541415610bcd5760028160090160006101000a81548160ff02191690836003811115610bc757fe5b02179055505b610bd78334610ee0565b505050565b6060600080600060029250600191505b60015482111515610cdf57600190505b60036000838152602001908152602001600020600b015481111515610cd2573373ffffffffffffffffffffffffffffffffffffffff1660036000848152602001908152602001600020600c01600083815260200190815260200160002060000160009054906101000a900473ffffffffffffffffffffffffffffffffffffffff1673ffffffffffffffffffffffffffffffffffffffff161415610cc557828290806001815401808255809150509060018203906000526020600020016000909192909190915055505b8080600101915050610bfc565b8180600101925050610bec565b82805480602002602001604051908101604052809291908181526020018280548015610d2a57602002820191906000526020600020905b815481526020019060010190808311610d16575b5050505050935050505090565b600080600360008581526020019081526020016000209150600034836001015401111515610d6457600080fd5b816005015483101515610d7657600080fd5b60006003811115610d8357fe5b8260090160009054906101000a900460ff166003811115610da057fe5b141515610dac57600080fd5b81600201548260010154101515610dc257600080fd5b610dcc843361144f565b90506000811115610e02573482600c01600083815260200190815260200160002060010160008282540192505081905550610ebe565b81600b0160008154809291906001019190505590506060604051908101604052803373ffffffffffffffffffffffffffffffffffffffff168152602001348152602001600081525082600c01600083815260200190815260200160002060008201518160000160006101000a81548173ffffffffffffffffffffffffffffffffffffffff021916908373ffffffffffffffffffffffffffffffffffffffff16021790555060208201518160010155604082015181600201559050505b34826001016000828254019250508190555050505050565b6000600154905090565b600080600080600360008781526020019081526020016000209350600192505b83600b015483111515610f8657610f3c846002015485600c0160008681526020019081526020016000206001015461152a90919063ffffffff16565b9150610f51828661155490919063ffffffff16565b90508084600c016000858152602001908152602001600020600201600082825401925050819055508280600101935050610f00565b505050505050565b600080600360008581526020019081526020016000209150828260050154101515610fb857600080fd5b81600201548260010154101515610fce57600080fd5b60038260090160006101000a81548160ff02191690836003811115610fef57fe5b0217905550600190505b81600b0154811115156110485781600c0160008281526020019081526020016000206001015482600c016000838152602001908152602001600020600201819055508080600101915050610ff9565b50505050565b6000806003600084815260200190815260200160002090508060030160009054906101000a900473ffffffffffffffffffffffffffffffffffffffff1673ffffffffffffffffffffffffffffffffffffffff163373ffffffffffffffffffffffffffffffffffffffff161415156110c457600080fd5b80600a0154915050919050565b600080600360008581526020019081526020016000209150816002015482600101541015151561110057600080fd5b816001015490506000826001018190555060018260090160006101000a81548160ff0219169083600381111561113257fe5b02179055506064826007015481151561114757fe5b0460010182600201540282600a018190555061117082600801548461159290919063ffffffff16565b82600601819055508160030160009054906101000a900473ffffffffffffffffffffffffffffffffffffffff1673ffffffffffffffffffffffffffffffffffffffff166108fc829081150290604051600060405180830381858888f193505050501580156111e2573d6000803e3d6000fd5b5050505050565b606060006001600081548092919060010191905055905061018060405190810160405280898152602001600081526020018881526020013373ffffffffffffffffffffffffffffffffffffffff16815260200187815260200186815260200161125d6000548661155490919063ffffffff16565b81526020018581526020018481526020016000600381111561127b57fe5b81526020016000815260200160008152506003600083815260200190815260200160002060008201518160000190805190602001906112bb9291906115b3565b50602082015181600101556040820151816002015560608201518160030160006101000a81548173ffffffffffffffffffffffffffffffffffffffff021916908373ffffffffffffffffffffffffffffffffffffffff1602179055506080820151816004015560a0820151816005015560c0820151816006015560e0820151816007015561010082015181600801556101208201518160090160006101000a81548160ff0219169083600381111561136f57fe5b021790555061014082015181600a015561016082015181600b0155905050600360008281526020019081526020016000206000018054600181600116156101000203166002900480601f0160208091040260200160405190810160405280929190818152602001828054600181600116156101000203166002900480156114375780601f1061140c57610100808354040283529160200191611437565b820191906000526020600020905b81548152906001019060200180831161141a57829003601f168201915b50505050509150509695505050505050565b60005481565b6000806000600360008681526020019081526020016000209150600190505b81600b0154811115156114fc578373ffffffffffffffffffffffffffffffffffffffff1682600c01600083815260200190815260200160002060000160009054906101000a900473ffffffffffffffffffffffffffffffffffffffff1673ffffffffffffffffffffffffffffffffffffffff1614156114ef57809250611501565b808060010191505061146e565b600092505b505092915050565b60008083831115151561151b57600080fd5b82840390508091505092915050565b60008060008311151561153c57600080fd5b828481151561154757fe5b0490508091505092915050565b6000806000841415611569576000915061158b565b828402905082848281151561157a57fe5b0414151561158757600080fd5b8091505b5092915050565b60008082840190508381101515156115a957600080fd5b8091505092915050565b828054600181600116156101000203166002900490600052602060002090601f016020900481019282601f106115f457805160ff1916838001178555611622565b82800160010185558215611622579182015b82811115611621578251825591602001919060010190611606565b5b50905061162f9190611633565b5090565b61165591905b80821115611651576000816000905550600101611639565b5090565b905600a165627a7a72305820c0a135f97ca757a7ad57998255e5c97122dc2bb05085219fd7d1903097d818590029",
  "source": "pragma solidity ^0.4.17;\nimport \"./SafeMath.sol\";\n\ncontract CrowdfundingFactory {\n    using SafeMath for uint256;\n    \n    enum Status { \n        Active, \n        Refunding,\n        Terminated, \n        Failed\n    }\n\n    struct Investor{\n        address addr;\n        uint256 amount;\n        uint256 balance;\n    }\n\n    struct Campaign{\n        string name;\n        uint256 amount;\n        uint256 goal;\n        address beneficiary;\n        uint256 startDate;\n        uint256 endDate;\n        uint256 refundDeadline;\n        uint256 rate;\n        uint256 term;\n        Status status;\n        uint256 debt;\n        uint256 numInvestors;\n        mapping(uint => Investor) investors;\n    }\n\n    uint256 public secInMonths = 52560000;\n    uint256 public numCampaigns;\n    uint256[] investorCampaigns;\n    mapping(uint256 => Campaign) public campaigns;\n\n    function createCampaign(string name, uint256 goal, uint256 startDate, uint256 endDate, uint256 rate, uint256 term) public returns(string){\n        uint256 campaignID = numCampaigns++;\n        campaigns[campaignID] = Campaign(name, 0, goal, msg.sender, startDate, endDate, term.mul(secInMonths), rate, term, Status.Active, 0, 0);\n        return campaigns[campaignID].name;\n    }\n\n    function getCampaigns() public view returns(uint){\n        return numCampaigns;\n    }\n\n    function getCampaign(uint256 campaignID) public view returns(string, uint256, uint256, address, uint256, uint256, uint256, Status){\n        Campaign storage campaign = campaigns[campaignID];\n        return (campaign.name, \n            campaign.amount, \n            campaign.goal, \n            campaign.beneficiary, \n            campaign.endDate, \n            campaign.rate, \n            campaign.term, \n            campaign.status\n        );\n    }\n\n    function getDebt(uint256 campaignID) public view returns(uint256){\n        Campaign storage campaign = campaigns[campaignID];\n        require(msg.sender == campaign.beneficiary);\n        return campaign.debt;\n    }\n\n    function getInvestorID(uint256 campaignID, address investorAddr) private view returns(uint256){\n        Campaign storage campaign = campaigns[campaignID];\n        for (uint256 i = 1; i <= campaign.numInvestors; i ++) {\n            if(campaign.investors[i].addr == investorAddr){\n                return i;\n            }\n        }\n        return 0;\n    }\n\n    function contribute(uint256 campaignID, uint256 todayDate) public payable{\n        Campaign storage campaign = campaigns[campaignID];\n        require(campaign.amount + msg.value > 0);\n        require(todayDate < campaign.endDate);\n        require(campaign.status == Status.Active);\n        require(campaign.amount < campaign.goal);\n        uint256 investorID = getInvestorID(campaignID, msg.sender);\n        if(investorID > 0){\n            campaign.investors[investorID].amount += msg.value;\n        } else{\n            investorID = campaign.numInvestors++;\n            campaign.investors[investorID] = Investor(msg.sender, msg.value, 0);\n        }\n        campaign.amount += msg.value;\n    }\n\n    function goalReached(uint256 campaignID, uint256 todayDate) public payable {\n        Campaign storage campaign = campaigns[campaignID];\n        require(campaign.amount >= campaign.goal);\n        uint256 amount = campaign.amount;\n        campaign.amount = 0;\n        campaign.status = Status.Refunding;\n        campaign.debt = campaign.goal * (1+(campaign.rate/100));\n        campaign.refundDeadline = todayDate.add(campaign.term);\n        campaign.beneficiary.transfer(amount);\n    }\n\n    function failCampaign(uint256 campaignID, uint256 todayDate) public {\n        Campaign storage campaign = campaigns[campaignID];\n        require(campaign.endDate < todayDate);\n        require(campaign.amount < campaign.goal);\n        campaign.status = Status.Failed;\n        for (uint256 i = 1; i <= campaign.numInvestors; i ++) {\n            campaign.investors[i].balance = campaign.investors[i].amount;\n        }\n    }\n\n    function claimRefund(uint256 campaignID) public payable {\n        Campaign storage campaign = campaigns[campaignID];\n        require(campaign.status == Status.Failed);\n        uint256 investorID = getInvestorID(campaignID, msg.sender);\n        require(investorID > 0);\n        require(campaign.investors[investorID].balance > 0);\n        uint256 refund = campaign.investors[investorID].balance;\n        campaign.investors[investorID].balance = 0;\n        msg.sender.transfer(refund);\n    }\n\n    function payDebt(uint256 campaignID, uint256 todayDate) public payable {\n        Campaign storage campaign = campaigns[campaignID];\n        require(msg.sender == campaign.beneficiary);\n        require(campaign.debt > 0);\n        require(todayDate <= campaign.refundDeadline);\n        campaign.debt = campaign.debt.sub(msg.value);\n        if(campaign.debt == 0){\n            campaign.status = Status.Terminated;\n        }\n        releaseHolderShares(campaignID, msg.value);\n    }\n\n    function releaseHolderShares(uint256 campaignID, uint depositAmount) public {\n        Campaign storage campaign = campaigns[campaignID];\n        for (uint256 i = 1; i <= campaign.numInvestors; i ++) {\n            uint256 percentage = campaign.investors[i].amount.div(campaign.goal);\n            uint256 holderShare = depositAmount.mul(percentage);\n            campaign.investors[i].balance += holderShare;\n        }\n    }\n\n    function claimShare(uint256 campaignID) public payable {\n        Campaign storage campaign = campaigns[campaignID];\n        uint256 investorID = getInvestorID(campaignID, msg.sender);\n        require(investorID > 0);\n        require(campaign.investors[investorID].balance > 0);\n        uint256 refund = campaign.investors[investorID].balance;\n        campaign.investors[investorID].balance = 0;\n        msg.sender.transfer(refund);\n    }\n\n    function getInvestorCampaigns() public view returns(uint[]){\n        uint256[] storage investorCampaignsInside = investorCampaigns;\n        for (uint256 i = 1; i <= numCampaigns; i++) {\n            for (uint256 j = 1; j <= campaigns[i].numInvestors; j++) {\n                if(campaigns[i].investors[j].addr == msg.sender){\n                    investorCampaignsInside.push(i);\n                }\n            }\n        }\n        return investorCampaignsInside;\n    }\n\n}",
  "sourcePath": "/Users/AndyPunk/Documents/Consensys/final_project/contracts/CrowdfundingFactory.sol",
  "compiler": {
    "name": "solc",
    "version": "0.4.24+commit.e67f0147.Emscripten.clang"
  },
  "schemaVersion": "2.0.1",
  "updatedAt": "2018-08-20T22:21:16.320Z"
}